{
	"data": {
		"bytecode": {
			"linkReferences": {},
			"object": "6080604052600a6001556040518060400160405280600181526020017f6100000000000000000000000000000000000000000000000000000000000000815250600990805190602001906200005692919062000151565b503480156200006457600080fd5b50604051620019983803806200199883398181016040528101906200008a91906200035a565b8060009080519060200190620000a2929190620001e2565b50601a600181905550607b600260006101000a81548161ffff021916908361ffff1602179055507fffffffffffffffffffffffffffffffffffffffffffffffffffffffffffffff816002806101000a81548160ff021916908360000b60ff1602179055506040518060800160405280600b60ff168152602001600c60ff168152602001600d60ff168152602001600e60ff1681525060039060046200014992919062000273565b50506200052f565b8280546200015f9062000440565b90600052602060002090601f016020900481019282620001835760008555620001cf565b82601f106200019e57805160ff1916838001178555620001cf565b82800160010185558215620001cf579182015b82811115620001ce578251825591602001919060010190620001b1565b5b509050620001de9190620002bd565b5090565b828054620001f09062000440565b90600052602060002090601f01602090048101928262000214576000855562000260565b82601f106200022f57805160ff191683800117855562000260565b8280016001018555821562000260579182015b828111156200025f57825182559160200191906001019062000242565b5b5090506200026f9190620002bd565b5090565b8260048101928215620002aa579160200282015b82811115620002a9578251829060ff1690559160200191906001019062000287565b5b509050620002b99190620002bd565b5090565b5b80821115620002d8576000816000905550600101620002be565b5090565b6000620002f3620002ed84620003d4565b620003ab565b9050828152602081018484840111156200031257620003116200050f565b5b6200031f8482856200040a565b509392505050565b600082601f8301126200033f576200033e6200050a565b5b815162000351848260208601620002dc565b91505092915050565b60006020828403121562000373576200037262000519565b5b600082015167ffffffffffffffff81111562000394576200039362000514565b5b620003a28482850162000327565b91505092915050565b6000620003b7620003ca565b9050620003c5828262000476565b919050565b6000604051905090565b600067ffffffffffffffff821115620003f257620003f1620004db565b5b620003fd826200051e565b9050602081019050919050565b60005b838110156200042a5780820151818401526020810190506200040d565b838111156200043a576000848401525b50505050565b600060028204905060018216806200045957607f821691505b6020821081141562000470576200046f620004ac565b5b50919050565b62000481826200051e565b810181811067ffffffffffffffff82111715620004a357620004a2620004db565b5b80604052505050565b7f4e487b7100000000000000000000000000000000000000000000000000000000600052602260045260246000fd5b7f4e487b7100000000000000000000000000000000000000000000000000000000600052604160045260246000fd5b600080fd5b600080fd5b600080fd5b600080fd5b6000601f19601f8301169050919050565b611459806200053f6000396000f3fe608060405234801561001057600080fd5b50600436106101e55760003560e01c806399d39d931161010f578063e7c898ef116100a2578063fc0e600811610071578063fc0e600814610490578063fcc995821461049a578063fe89eada146104ca578063ffbb24d4146104fa576101e5565b8063e7c898ef14610440578063e9b619091461044a578063ec02569814610468578063f7a3bdf714610486576101e5565b8063c47f0027116100de578063c47f0027146103ce578063cc3e57d9146103ea578063d22d90061461041a578063dd8842a414610436576101e5565b806399d39d93146103805780639a9bdca71461038a578063a521bfd1146103ba578063c0d44075146103c4576101e5565b8063457676ee116101875780637e6eab0e116101565780637e6eab0e14610308578063967e6e6514610326578063975057e714610344578063993a04b714610362576101e5565b8063457676ee146102a65780634a8e5f59146102b05780635d4a10fa146102ce578063793816ec146102ea576101e5565b806317d7de7c116101c357806317d7de7c14610244578063195f0f0e14610262578063302c3cfa1461027e5780633f3108f71461029c576101e5565b806306661abd146101ea57806306fdde03146102085780630add6ef214610226575b600080fd5b6101f261052a565b6040516101ff9190610fb2565b60405180910390f35b610210610530565b60405161021d9190610f75565b60405180910390f35b61022e6105be565b60405161023b9190610f02565b60405180910390f35b61024c6105d1565b6040516102599190610f75565b60405180910390f35b61027c60048036038101906102779190610dae565b610663565b005b61028661068f565b6040516102939190610fb2565b60405180910390f35b6102a461069c565b005b6102ae6106b8565b005b6102b86106d3565b6040516102c59190610f5a565b60405180910390f35b6102e860048036038101906102e39190610dae565b6106e4565b005b6102f26106ee565b6040516102ff9190610f97565b60405180910390f35b610310610702565b60405161031d9190610f38565b60405180910390f35b61032e610790565b60405161033b9190610fb2565b60405180910390f35b61034c61079a565b6040516103599190610fb2565b60405180910390f35b61036a6107a8565b6040516103779190610fb2565b60405180910390f35b6103886107b2565b005b6103a4600480360381019061039f9190610dae565b610876565b6040516103b19190610fb2565b60405180910390f35b6103c261089a565b005b6103cc6108c4565b005b6103e860048036038101906103e39190610d65565b610915565b005b61040460048036038101906103ff9190610dae565b61092f565b6040516104119190610fb2565b60405180910390f35b610434600480360381019061042f9190610ddb565b61094a565b005b61043e61096b565b005b61044861098c565b005b6104526109e3565b60405161045f9190610f1d565b60405180910390f35b6104706109f6565b60405161047d9190610fb2565b60405180910390f35b61048e6109ff565b005b610498610a7a565b005b6104b460048036038101906104af9190610d38565b610ae5565b6040516104c19190610f75565b60405180910390f35b6104e460048036038101906104df9190610dae565b610b60565b6040516104f19190610ee7565b60405180910390f35b610514600480360381019061050f9190610dae565b610bcb565b6040516105219190610fb2565b60405180910390f35b600d5481565b6000805461053d906111b3565b80601f0160208091040260200160405190810160405280929190818152602001828054610569906111b3565b80156105b65780601f1061058b576101008083540402835291602001916105b6565b820191906000526020600020905b81548152906001019060200180831161059957829003601f168201915b505050505081565b600860009054906101000a900460f01b81565b6060600080546105e0906111b3565b80601f016020809104026020016040519081016040528092919081815260200182805461060c906111b3565b80156106595780601f1061062e57610100808354040283529160200191610659565b820191906000526020600020905b81548152906001019060200180831161063c57829003601f168201915b5050505050905090565b600781908060018154018082558091505060019003906000526020600020016000909190919091505550565b6000600780549050905090565b6005600160008282546106af919061105b565b92505081905550565b60018060008282546106ca919061105b565b92505081905550565b60028054906101000a900460000b81565b8060018190555050565b600260009054906101000a900461ffff1681565b6009805461070f906111b3565b80601f016020809104026020016040519081016040528092919081815260200182805461073b906111b3565b80156107885780601f1061075d57610100808354040283529160200191610788565b820191906000526020600020905b81548152906001019060200180831161076b57829003601f168201915b505050505081565b6000600154905090565b600080602a90508091505090565b6000600154905090565b6009808054806107c1906111b3565b80601f81146107cf576107e5565b83600052602060002060ff1984168155603f9350505b506002820183556001810192505050600190038154600116156108175790600052602060002090602091828204019190065b7f620000000000000000000000000000000000000000000000000000000000000090919091601f036101000a81548160ff021916907f010000000000000000000000000000000000000000000000000000000000000084040217905550565b6007818154811061088657600080fd5b906000526020600020016000915090505481565b60078054806108ac576108ab6112bd565b5b60019003818190600052602060002001600090559055565b5b6001600d546108d4919061105b565b600a600d54600381106108ea576108e96112ec565b5b01819055506001600d6000828254610902919061105b565b925050819055506003600d54106108c557565b806000908051906020019061092b929190610be6565b5050565b600a816003811061093f57600080fd5b016000915090505481565b8060038360ff1660048110610962576109616112ec565b5b01819055505050565b6101c8600260006101000a81548161ffff021916908361ffff160217905550565b5b6003600d5410156109e1576001600d546109a7919061105b565b600a600d54600381106109bd576109bc6112ec565b5b01819055506001600d60008282546109d5919061105b565b9250508190555061098d565b565b600860029054906101000a900460e81b81565b60006004905090565b7f6366000000000000000000000000000000000000000000000000000000000000600860006101000a81548161ffff021916908360f01c02179055507f6162640000000000000000000000000000000000000000000000000000000000600860026101000a81548162ffffff021916908360e81c0217905550565b6000600d5490505b6003811015610ae2576001600d54610a9a919061105b565b600a600d5460038110610ab057610aaf6112ec565b5b01819055506001600d6000828254610ac8919061105b565b925050819055508080610ada90611216565b915050610a82565b50565b6060806000831315610b1157604051806060016040528060228152602001611402602291399050610b57565b6000831215610b3a576040518060600160405280602281526020016113e0602291399050610b56565b6040518060600160405280602b81526020016113b5602b913990505b5b80915050919050565b60006009828154610b70906111b3565b8110610b7f57610b7e6112ec565b5b815460011615610b9e5790600052602060002090602091828204019190065b9054901a7f0100000000000000000000000000000000000000000000000000000000000000029050919050565b60038160048110610bdb57600080fd5b016000915090505481565b828054610bf2906111b3565b90600052602060002090601f016020900481019282610c145760008555610c5b565b82601f10610c2d57805160ff1916838001178555610c5b565b82800160010185558215610c5b579182015b82811115610c5a578251825591602001919060010190610c3f565b5b509050610c689190610c6c565b5090565b5b80821115610c85576000816000905550600101610c6d565b5090565b6000610c9c610c9784610ff2565b610fcd565b905082815260208101848484011115610cb857610cb761134f565b5b610cc3848285611171565b509392505050565b600081359050610cda8161136f565b92915050565b600082601f830112610cf557610cf461134a565b5b8135610d05848260208601610c89565b91505092915050565b600081359050610d1d81611386565b92915050565b600081359050610d328161139d565b92915050565b600060208284031215610d4e57610d4d611359565b5b6000610d5c84828501610ccb565b91505092915050565b600060208284031215610d7b57610d7a611359565b5b600082013567ffffffffffffffff811115610d9957610d98611354565b5b610da584828501610ce0565b91505092915050565b600060208284031215610dc457610dc3611359565b5b6000610dd284828501610d0e565b91505092915050565b60008060408385031215610df257610df1611359565b5b6000610e0085828601610d23565b9250506020610e1185828601610d0e565b9150509250929050565b610e24816110b1565b82525050565b610e33816110dd565b82525050565b610e4281611109565b82525050565b6000610e5382611023565b610e5d8185611039565b9350610e6d818560208601611180565b610e768161135e565b840191505092915050565b610e8a8161113f565b82525050565b6000610e9b8261102e565b610ea5818561104a565b9350610eb5818560208601611180565b610ebe8161135e565b840191505092915050565b610ed28161114c565b82525050565b610ee18161115a565b82525050565b6000602082019050610efc6000830184610e1b565b92915050565b6000602082019050610f176000830184610e2a565b92915050565b6000602082019050610f326000830184610e39565b92915050565b60006020820190508181036000830152610f528184610e48565b905092915050565b6000602082019050610f6f6000830184610e81565b92915050565b60006020820190508181036000830152610f8f8184610e90565b905092915050565b6000602082019050610fac6000830184610ec9565b92915050565b6000602082019050610fc76000830184610ed8565b92915050565b6000610fd7610fe8565b9050610fe382826111e5565b919050565b6000604051905090565b600067ffffffffffffffff82111561100d5761100c61131b565b5b6110168261135e565b9050602081019050919050565b600081519050919050565b600081519050919050565b600082825260208201905092915050565b600082825260208201905092915050565b60006110668261115a565b91506110718361115a565b9250827fffffffffffffffffffffffffffffffffffffffffffffffffffffffffffffffff038211156110a6576110a561125f565b5b828201905092915050565b60007fff0000000000000000000000000000000000000000000000000000000000000082169050919050565b60007fffff00000000000000000000000000000000000000000000000000000000000082169050919050565b60007fffffff000000000000000000000000000000000000000000000000000000000082169050919050565b6000819050919050565b60008160000b9050919050565b600061ffff82169050919050565b6000819050919050565b600060ff82169050919050565b82818337600083830152505050565b60005b8381101561119e578082015181840152602081019050611183565b838111156111ad576000848401525b50505050565b600060028204905060018216806111cb57607f821691505b602082108114156111df576111de61128e565b5b50919050565b6111ee8261135e565b810181811067ffffffffffffffff8211171561120d5761120c61131b565b5b80604052505050565b60006112218261115a565b91507fffffffffffffffffffffffffffffffffffffffffffffffffffffffffffffffff8214156112545761125361125f565b5b600182019050919050565b7f4e487b7100000000000000000000000000000000000000000000000000000000600052601160045260246000fd5b7f4e487b7100000000000000000000000000000000000000000000000000000000600052602260045260246000fd5b7f4e487b7100000000000000000000000000000000000000000000000000000000600052603160045260246000fd5b7f4e487b7100000000000000000000000000000000000000000000000000000000600052603260045260246000fd5b7f4e487b7100000000000000000000000000000000000000000000000000000000600052604160045260246000fd5b600080fd5b600080fd5b600080fd5b600080fd5b6000601f19601f8301169050919050565b61137881611135565b811461138357600080fd5b50565b61138f8161115a565b811461139a57600080fd5b50565b6113a681611164565b81146113b157600080fd5b5056fe596f7572207661726961626c6520697320636f6e7461696e696e67206e756d65726963207a65726f283029596f7572207661726961626c6520686f6c642773206120282d2976652076616c7565596f7572207661726961626c6520686f6c642773206120282b2976652076616c7565a264697066735822122082553bf2a162e4b1569cc149f4dcc67cf6c6a69d4d50965fd630c06ce0fcadda64736f6c63430008070033",
			"opcodes": "PUSH1 0x80 PUSH1 0x40 MSTORE PUSH1 0xA PUSH1 0x1 SSTORE PUSH1 0x40 MLOAD DUP1 PUSH1 0x40 ADD PUSH1 0x40 MSTORE DUP1 PUSH1 0x1 DUP2 MSTORE PUSH1 0x20 ADD PUSH32 0x6100000000000000000000000000000000000000000000000000000000000000 DUP2 MSTORE POP PUSH1 0x9 SWAP1 DUP1 MLOAD SWAP1 PUSH1 0x20 ADD SWAP1 PUSH3 0x56 SWAP3 SWAP2 SWAP1 PUSH3 0x151 JUMP JUMPDEST POP CALLVALUE DUP1 ISZERO PUSH3 0x64 JUMPI PUSH1 0x0 DUP1 REVERT JUMPDEST POP PUSH1 0x40 MLOAD PUSH3 0x1998 CODESIZE SUB DUP1 PUSH3 0x1998 DUP4 CODECOPY DUP2 DUP2 ADD PUSH1 0x40 MSTORE DUP2 ADD SWAP1 PUSH3 0x8A SWAP2 SWAP1 PUSH3 0x35A JUMP JUMPDEST DUP1 PUSH1 0x0 SWAP1 DUP1 MLOAD SWAP1 PUSH1 0x20 ADD SWAP1 PUSH3 0xA2 SWAP3 SWAP2 SWAP1 PUSH3 0x1E2 JUMP JUMPDEST POP PUSH1 0x1A PUSH1 0x1 DUP2 SWAP1 SSTORE POP PUSH1 0x7B PUSH1 0x2 PUSH1 0x0 PUSH2 0x100 EXP DUP2 SLOAD DUP2 PUSH2 0xFFFF MUL NOT AND SWAP1 DUP4 PUSH2 0xFFFF AND MUL OR SWAP1 SSTORE POP PUSH32 0xFFFFFFFFFFFFFFFFFFFFFFFFFFFFFFFFFFFFFFFFFFFFFFFFFFFFFFFFFFFFFF81 PUSH1 0x2 DUP1 PUSH2 0x100 EXP DUP2 SLOAD DUP2 PUSH1 0xFF MUL NOT AND SWAP1 DUP4 PUSH1 0x0 SIGNEXTEND PUSH1 0xFF AND MUL OR SWAP1 SSTORE POP PUSH1 0x40 MLOAD DUP1 PUSH1 0x80 ADD PUSH1 0x40 MSTORE DUP1 PUSH1 0xB PUSH1 0xFF AND DUP2 MSTORE PUSH1 0x20 ADD PUSH1 0xC PUSH1 0xFF AND DUP2 MSTORE PUSH1 0x20 ADD PUSH1 0xD PUSH1 0xFF AND DUP2 MSTORE PUSH1 0x20 ADD PUSH1 0xE PUSH1 0xFF AND DUP2 MSTORE POP PUSH1 0x3 SWAP1 PUSH1 0x4 PUSH3 0x149 SWAP3 SWAP2 SWAP1 PUSH3 0x273 JUMP JUMPDEST POP POP PUSH3 0x52F JUMP JUMPDEST DUP3 DUP1 SLOAD PUSH3 0x15F SWAP1 PUSH3 0x440 JUMP JUMPDEST SWAP1 PUSH1 0x0 MSTORE PUSH1 0x20 PUSH1 0x0 KECCAK256 SWAP1 PUSH1 0x1F ADD PUSH1 0x20 SWAP1 DIV DUP2 ADD SWAP3 DUP3 PUSH3 0x183 JUMPI PUSH1 0x0 DUP6 SSTORE PUSH3 0x1CF JUMP JUMPDEST DUP3 PUSH1 0x1F LT PUSH3 0x19E JUMPI DUP1 MLOAD PUSH1 0xFF NOT AND DUP4 DUP1 ADD OR DUP6 SSTORE PUSH3 0x1CF JUMP JUMPDEST DUP3 DUP1 ADD PUSH1 0x1 ADD DUP6 SSTORE DUP3 ISZERO PUSH3 0x1CF JUMPI SWAP2 DUP3 ADD JUMPDEST DUP3 DUP2 GT ISZERO PUSH3 0x1CE JUMPI DUP3 MLOAD DUP3 SSTORE SWAP2 PUSH1 0x20 ADD SWAP2 SWAP1 PUSH1 0x1 ADD SWAP1 PUSH3 0x1B1 JUMP JUMPDEST JUMPDEST POP SWAP1 POP PUSH3 0x1DE SWAP2 SWAP1 PUSH3 0x2BD JUMP JUMPDEST POP SWAP1 JUMP JUMPDEST DUP3 DUP1 SLOAD PUSH3 0x1F0 SWAP1 PUSH3 0x440 JUMP JUMPDEST SWAP1 PUSH1 0x0 MSTORE PUSH1 0x20 PUSH1 0x0 KECCAK256 SWAP1 PUSH1 0x1F ADD PUSH1 0x20 SWAP1 DIV DUP2 ADD SWAP3 DUP3 PUSH3 0x214 JUMPI PUSH1 0x0 DUP6 SSTORE PUSH3 0x260 JUMP JUMPDEST DUP3 PUSH1 0x1F LT PUSH3 0x22F JUMPI DUP1 MLOAD PUSH1 0xFF NOT AND DUP4 DUP1 ADD OR DUP6 SSTORE PUSH3 0x260 JUMP JUMPDEST DUP3 DUP1 ADD PUSH1 0x1 ADD DUP6 SSTORE DUP3 ISZERO PUSH3 0x260 JUMPI SWAP2 DUP3 ADD JUMPDEST DUP3 DUP2 GT ISZERO PUSH3 0x25F JUMPI DUP3 MLOAD DUP3 SSTORE SWAP2 PUSH1 0x20 ADD SWAP2 SWAP1 PUSH1 0x1 ADD SWAP1 PUSH3 0x242 JUMP JUMPDEST JUMPDEST POP SWAP1 POP PUSH3 0x26F SWAP2 SWAP1 PUSH3 0x2BD JUMP JUMPDEST POP SWAP1 JUMP JUMPDEST DUP3 PUSH1 0x4 DUP2 ADD SWAP3 DUP3 ISZERO PUSH3 0x2AA JUMPI SWAP2 PUSH1 0x20 MUL DUP3 ADD JUMPDEST DUP3 DUP2 GT ISZERO PUSH3 0x2A9 JUMPI DUP3 MLOAD DUP3 SWAP1 PUSH1 0xFF AND SWAP1 SSTORE SWAP2 PUSH1 0x20 ADD SWAP2 SWAP1 PUSH1 0x1 ADD SWAP1 PUSH3 0x287 JUMP JUMPDEST JUMPDEST POP SWAP1 POP PUSH3 0x2B9 SWAP2 SWAP1 PUSH3 0x2BD JUMP JUMPDEST POP SWAP1 JUMP JUMPDEST JUMPDEST DUP1 DUP3 GT ISZERO PUSH3 0x2D8 JUMPI PUSH1 0x0 DUP2 PUSH1 0x0 SWAP1 SSTORE POP PUSH1 0x1 ADD PUSH3 0x2BE JUMP JUMPDEST POP SWAP1 JUMP JUMPDEST PUSH1 0x0 PUSH3 0x2F3 PUSH3 0x2ED DUP5 PUSH3 0x3D4 JUMP JUMPDEST PUSH3 0x3AB JUMP JUMPDEST SWAP1 POP DUP3 DUP2 MSTORE PUSH1 0x20 DUP2 ADD DUP5 DUP5 DUP5 ADD GT ISZERO PUSH3 0x312 JUMPI PUSH3 0x311 PUSH3 0x50F JUMP JUMPDEST JUMPDEST PUSH3 0x31F DUP5 DUP3 DUP6 PUSH3 0x40A JUMP JUMPDEST POP SWAP4 SWAP3 POP POP POP JUMP JUMPDEST PUSH1 0x0 DUP3 PUSH1 0x1F DUP4 ADD SLT PUSH3 0x33F JUMPI PUSH3 0x33E PUSH3 0x50A JUMP JUMPDEST JUMPDEST DUP2 MLOAD PUSH3 0x351 DUP5 DUP3 PUSH1 0x20 DUP7 ADD PUSH3 0x2DC JUMP JUMPDEST SWAP2 POP POP SWAP3 SWAP2 POP POP JUMP JUMPDEST PUSH1 0x0 PUSH1 0x20 DUP3 DUP5 SUB SLT ISZERO PUSH3 0x373 JUMPI PUSH3 0x372 PUSH3 0x519 JUMP JUMPDEST JUMPDEST PUSH1 0x0 DUP3 ADD MLOAD PUSH8 0xFFFFFFFFFFFFFFFF DUP2 GT ISZERO PUSH3 0x394 JUMPI PUSH3 0x393 PUSH3 0x514 JUMP JUMPDEST JUMPDEST PUSH3 0x3A2 DUP5 DUP3 DUP6 ADD PUSH3 0x327 JUMP JUMPDEST SWAP2 POP POP SWAP3 SWAP2 POP POP JUMP JUMPDEST PUSH1 0x0 PUSH3 0x3B7 PUSH3 0x3CA JUMP JUMPDEST SWAP1 POP PUSH3 0x3C5 DUP3 DUP3 PUSH3 0x476 JUMP JUMPDEST SWAP2 SWAP1 POP JUMP JUMPDEST PUSH1 0x0 PUSH1 0x40 MLOAD SWAP1 POP SWAP1 JUMP JUMPDEST PUSH1 0x0 PUSH8 0xFFFFFFFFFFFFFFFF DUP3 GT ISZERO PUSH3 0x3F2 JUMPI PUSH3 0x3F1 PUSH3 0x4DB JUMP JUMPDEST JUMPDEST PUSH3 0x3FD DUP3 PUSH3 0x51E JUMP JUMPDEST SWAP1 POP PUSH1 0x20 DUP2 ADD SWAP1 POP SWAP2 SWAP1 POP JUMP JUMPDEST PUSH1 0x0 JUMPDEST DUP4 DUP2 LT ISZERO PUSH3 0x42A JUMPI DUP1 DUP3 ADD MLOAD DUP2 DUP5 ADD MSTORE PUSH1 0x20 DUP2 ADD SWAP1 POP PUSH3 0x40D JUMP JUMPDEST DUP4 DUP2 GT ISZERO PUSH3 0x43A JUMPI PUSH1 0x0 DUP5 DUP5 ADD MSTORE JUMPDEST POP POP POP POP JUMP JUMPDEST PUSH1 0x0 PUSH1 0x2 DUP3 DIV SWAP1 POP PUSH1 0x1 DUP3 AND DUP1 PUSH3 0x459 JUMPI PUSH1 0x7F DUP3 AND SWAP2 POP JUMPDEST PUSH1 0x20 DUP3 LT DUP2 EQ ISZERO PUSH3 0x470 JUMPI PUSH3 0x46F PUSH3 0x4AC JUMP JUMPDEST JUMPDEST POP SWAP2 SWAP1 POP JUMP JUMPDEST PUSH3 0x481 DUP3 PUSH3 0x51E JUMP JUMPDEST DUP2 ADD DUP2 DUP2 LT PUSH8 0xFFFFFFFFFFFFFFFF DUP3 GT OR ISZERO PUSH3 0x4A3 JUMPI PUSH3 0x4A2 PUSH3 0x4DB JUMP JUMPDEST JUMPDEST DUP1 PUSH1 0x40 MSTORE POP POP POP JUMP JUMPDEST PUSH32 0x4E487B7100000000000000000000000000000000000000000000000000000000 PUSH1 0x0 MSTORE PUSH1 0x22 PUSH1 0x4 MSTORE PUSH1 0x24 PUSH1 0x0 REVERT JUMPDEST PUSH32 0x4E487B7100000000000000000000000000000000000000000000000000000000 PUSH1 0x0 MSTORE PUSH1 0x41 PUSH1 0x4 MSTORE PUSH1 0x24 PUSH1 0x0 REVERT JUMPDEST PUSH1 0x0 DUP1 REVERT JUMPDEST PUSH1 0x0 DUP1 REVERT JUMPDEST PUSH1 0x0 DUP1 REVERT JUMPDEST PUSH1 0x0 DUP1 REVERT JUMPDEST PUSH1 0x0 PUSH1 0x1F NOT PUSH1 0x1F DUP4 ADD AND SWAP1 POP SWAP2 SWAP1 POP JUMP JUMPDEST PUSH2 0x1459 DUP1 PUSH3 0x53F PUSH1 0x0 CODECOPY PUSH1 0x0 RETURN INVALID PUSH1 0x80 PUSH1 0x40 MSTORE CALLVALUE DUP1 ISZERO PUSH2 0x10 JUMPI PUSH1 0x0 DUP1 REVERT JUMPDEST POP PUSH1 0x4 CALLDATASIZE LT PUSH2 0x1E5 JUMPI PUSH1 0x0 CALLDATALOAD PUSH1 0xE0 SHR DUP1 PUSH4 0x99D39D93 GT PUSH2 0x10F JUMPI DUP1 PUSH4 0xE7C898EF GT PUSH2 0xA2 JUMPI DUP1 PUSH4 0xFC0E6008 GT PUSH2 0x71 JUMPI DUP1 PUSH4 0xFC0E6008 EQ PUSH2 0x490 JUMPI DUP1 PUSH4 0xFCC99582 EQ PUSH2 0x49A JUMPI DUP1 PUSH4 0xFE89EADA EQ PUSH2 0x4CA JUMPI DUP1 PUSH4 0xFFBB24D4 EQ PUSH2 0x4FA JUMPI PUSH2 0x1E5 JUMP JUMPDEST DUP1 PUSH4 0xE7C898EF EQ PUSH2 0x440 JUMPI DUP1 PUSH4 0xE9B61909 EQ PUSH2 0x44A JUMPI DUP1 PUSH4 0xEC025698 EQ PUSH2 0x468 JUMPI DUP1 PUSH4 0xF7A3BDF7 EQ PUSH2 0x486 JUMPI PUSH2 0x1E5 JUMP JUMPDEST DUP1 PUSH4 0xC47F0027 GT PUSH2 0xDE JUMPI DUP1 PUSH4 0xC47F0027 EQ PUSH2 0x3CE JUMPI DUP1 PUSH4 0xCC3E57D9 EQ PUSH2 0x3EA JUMPI DUP1 PUSH4 0xD22D9006 EQ PUSH2 0x41A JUMPI DUP1 PUSH4 0xDD8842A4 EQ PUSH2 0x436 JUMPI PUSH2 0x1E5 JUMP JUMPDEST DUP1 PUSH4 0x99D39D93 EQ PUSH2 0x380 JUMPI DUP1 PUSH4 0x9A9BDCA7 EQ PUSH2 0x38A JUMPI DUP1 PUSH4 0xA521BFD1 EQ PUSH2 0x3BA JUMPI DUP1 PUSH4 0xC0D44075 EQ PUSH2 0x3C4 JUMPI PUSH2 0x1E5 JUMP JUMPDEST DUP1 PUSH4 0x457676EE GT PUSH2 0x187 JUMPI DUP1 PUSH4 0x7E6EAB0E GT PUSH2 0x156 JUMPI DUP1 PUSH4 0x7E6EAB0E EQ PUSH2 0x308 JUMPI DUP1 PUSH4 0x967E6E65 EQ PUSH2 0x326 JUMPI DUP1 PUSH4 0x975057E7 EQ PUSH2 0x344 JUMPI DUP1 PUSH4 0x993A04B7 EQ PUSH2 0x362 JUMPI PUSH2 0x1E5 JUMP JUMPDEST DUP1 PUSH4 0x457676EE EQ PUSH2 0x2A6 JUMPI DUP1 PUSH4 0x4A8E5F59 EQ PUSH2 0x2B0 JUMPI DUP1 PUSH4 0x5D4A10FA EQ PUSH2 0x2CE JUMPI DUP1 PUSH4 0x793816EC EQ PUSH2 0x2EA JUMPI PUSH2 0x1E5 JUMP JUMPDEST DUP1 PUSH4 0x17D7DE7C GT PUSH2 0x1C3 JUMPI DUP1 PUSH4 0x17D7DE7C EQ PUSH2 0x244 JUMPI DUP1 PUSH4 0x195F0F0E EQ PUSH2 0x262 JUMPI DUP1 PUSH4 0x302C3CFA EQ PUSH2 0x27E JUMPI DUP1 PUSH4 0x3F3108F7 EQ PUSH2 0x29C JUMPI PUSH2 0x1E5 JUMP JUMPDEST DUP1 PUSH4 0x6661ABD EQ PUSH2 0x1EA JUMPI DUP1 PUSH4 0x6FDDE03 EQ PUSH2 0x208 JUMPI DUP1 PUSH4 0xADD6EF2 EQ PUSH2 0x226 JUMPI JUMPDEST PUSH1 0x0 DUP1 REVERT JUMPDEST PUSH2 0x1F2 PUSH2 0x52A JUMP JUMPDEST PUSH1 0x40 MLOAD PUSH2 0x1FF SWAP2 SWAP1 PUSH2 0xFB2 JUMP JUMPDEST PUSH1 0x40 MLOAD DUP1 SWAP2 SUB SWAP1 RETURN JUMPDEST PUSH2 0x210 PUSH2 0x530 JUMP JUMPDEST PUSH1 0x40 MLOAD PUSH2 0x21D SWAP2 SWAP1 PUSH2 0xF75 JUMP JUMPDEST PUSH1 0x40 MLOAD DUP1 SWAP2 SUB SWAP1 RETURN JUMPDEST PUSH2 0x22E PUSH2 0x5BE JUMP JUMPDEST PUSH1 0x40 MLOAD PUSH2 0x23B SWAP2 SWAP1 PUSH2 0xF02 JUMP JUMPDEST PUSH1 0x40 MLOAD DUP1 SWAP2 SUB SWAP1 RETURN JUMPDEST PUSH2 0x24C PUSH2 0x5D1 JUMP JUMPDEST PUSH1 0x40 MLOAD PUSH2 0x259 SWAP2 SWAP1 PUSH2 0xF75 JUMP JUMPDEST PUSH1 0x40 MLOAD DUP1 SWAP2 SUB SWAP1 RETURN JUMPDEST PUSH2 0x27C PUSH1 0x4 DUP1 CALLDATASIZE SUB DUP2 ADD SWAP1 PUSH2 0x277 SWAP2 SWAP1 PUSH2 0xDAE JUMP JUMPDEST PUSH2 0x663 JUMP JUMPDEST STOP JUMPDEST PUSH2 0x286 PUSH2 0x68F JUMP JUMPDEST PUSH1 0x40 MLOAD PUSH2 0x293 SWAP2 SWAP1 PUSH2 0xFB2 JUMP JUMPDEST PUSH1 0x40 MLOAD DUP1 SWAP2 SUB SWAP1 RETURN JUMPDEST PUSH2 0x2A4 PUSH2 0x69C JUMP JUMPDEST STOP JUMPDEST PUSH2 0x2AE PUSH2 0x6B8 JUMP JUMPDEST STOP JUMPDEST PUSH2 0x2B8 PUSH2 0x6D3 JUMP JUMPDEST PUSH1 0x40 MLOAD PUSH2 0x2C5 SWAP2 SWAP1 PUSH2 0xF5A JUMP JUMPDEST PUSH1 0x40 MLOAD DUP1 SWAP2 SUB SWAP1 RETURN JUMPDEST PUSH2 0x2E8 PUSH1 0x4 DUP1 CALLDATASIZE SUB DUP2 ADD SWAP1 PUSH2 0x2E3 SWAP2 SWAP1 PUSH2 0xDAE JUMP JUMPDEST PUSH2 0x6E4 JUMP JUMPDEST STOP JUMPDEST PUSH2 0x2F2 PUSH2 0x6EE JUMP JUMPDEST PUSH1 0x40 MLOAD PUSH2 0x2FF SWAP2 SWAP1 PUSH2 0xF97 JUMP JUMPDEST PUSH1 0x40 MLOAD DUP1 SWAP2 SUB SWAP1 RETURN JUMPDEST PUSH2 0x310 PUSH2 0x702 JUMP JUMPDEST PUSH1 0x40 MLOAD PUSH2 0x31D SWAP2 SWAP1 PUSH2 0xF38 JUMP JUMPDEST PUSH1 0x40 MLOAD DUP1 SWAP2 SUB SWAP1 RETURN JUMPDEST PUSH2 0x32E PUSH2 0x790 JUMP JUMPDEST PUSH1 0x40 MLOAD PUSH2 0x33B SWAP2 SWAP1 PUSH2 0xFB2 JUMP JUMPDEST PUSH1 0x40 MLOAD DUP1 SWAP2 SUB SWAP1 RETURN JUMPDEST PUSH2 0x34C PUSH2 0x79A JUMP JUMPDEST PUSH1 0x40 MLOAD PUSH2 0x359 SWAP2 SWAP1 PUSH2 0xFB2 JUMP JUMPDEST PUSH1 0x40 MLOAD DUP1 SWAP2 SUB SWAP1 RETURN JUMPDEST PUSH2 0x36A PUSH2 0x7A8 JUMP JUMPDEST PUSH1 0x40 MLOAD PUSH2 0x377 SWAP2 SWAP1 PUSH2 0xFB2 JUMP JUMPDEST PUSH1 0x40 MLOAD DUP1 SWAP2 SUB SWAP1 RETURN JUMPDEST PUSH2 0x388 PUSH2 0x7B2 JUMP JUMPDEST STOP JUMPDEST PUSH2 0x3A4 PUSH1 0x4 DUP1 CALLDATASIZE SUB DUP2 ADD SWAP1 PUSH2 0x39F SWAP2 SWAP1 PUSH2 0xDAE JUMP JUMPDEST PUSH2 0x876 JUMP JUMPDEST PUSH1 0x40 MLOAD PUSH2 0x3B1 SWAP2 SWAP1 PUSH2 0xFB2 JUMP JUMPDEST PUSH1 0x40 MLOAD DUP1 SWAP2 SUB SWAP1 RETURN JUMPDEST PUSH2 0x3C2 PUSH2 0x89A JUMP JUMPDEST STOP JUMPDEST PUSH2 0x3CC PUSH2 0x8C4 JUMP JUMPDEST STOP JUMPDEST PUSH2 0x3E8 PUSH1 0x4 DUP1 CALLDATASIZE SUB DUP2 ADD SWAP1 PUSH2 0x3E3 SWAP2 SWAP1 PUSH2 0xD65 JUMP JUMPDEST PUSH2 0x915 JUMP JUMPDEST STOP JUMPDEST PUSH2 0x404 PUSH1 0x4 DUP1 CALLDATASIZE SUB DUP2 ADD SWAP1 PUSH2 0x3FF SWAP2 SWAP1 PUSH2 0xDAE JUMP JUMPDEST PUSH2 0x92F JUMP JUMPDEST PUSH1 0x40 MLOAD PUSH2 0x411 SWAP2 SWAP1 PUSH2 0xFB2 JUMP JUMPDEST PUSH1 0x40 MLOAD DUP1 SWAP2 SUB SWAP1 RETURN JUMPDEST PUSH2 0x434 PUSH1 0x4 DUP1 CALLDATASIZE SUB DUP2 ADD SWAP1 PUSH2 0x42F SWAP2 SWAP1 PUSH2 0xDDB JUMP JUMPDEST PUSH2 0x94A JUMP JUMPDEST STOP JUMPDEST PUSH2 0x43E PUSH2 0x96B JUMP JUMPDEST STOP JUMPDEST PUSH2 0x448 PUSH2 0x98C JUMP JUMPDEST STOP JUMPDEST PUSH2 0x452 PUSH2 0x9E3 JUMP JUMPDEST PUSH1 0x40 MLOAD PUSH2 0x45F SWAP2 SWAP1 PUSH2 0xF1D JUMP JUMPDEST PUSH1 0x40 MLOAD DUP1 SWAP2 SUB SWAP1 RETURN JUMPDEST PUSH2 0x470 PUSH2 0x9F6 JUMP JUMPDEST PUSH1 0x40 MLOAD PUSH2 0x47D SWAP2 SWAP1 PUSH2 0xFB2 JUMP JUMPDEST PUSH1 0x40 MLOAD DUP1 SWAP2 SUB SWAP1 RETURN JUMPDEST PUSH2 0x48E PUSH2 0x9FF JUMP JUMPDEST STOP JUMPDEST PUSH2 0x498 PUSH2 0xA7A JUMP JUMPDEST STOP JUMPDEST PUSH2 0x4B4 PUSH1 0x4 DUP1 CALLDATASIZE SUB DUP2 ADD SWAP1 PUSH2 0x4AF SWAP2 SWAP1 PUSH2 0xD38 JUMP JUMPDEST PUSH2 0xAE5 JUMP JUMPDEST PUSH1 0x40 MLOAD PUSH2 0x4C1 SWAP2 SWAP1 PUSH2 0xF75 JUMP JUMPDEST PUSH1 0x40 MLOAD DUP1 SWAP2 SUB SWAP1 RETURN JUMPDEST PUSH2 0x4E4 PUSH1 0x4 DUP1 CALLDATASIZE SUB DUP2 ADD SWAP1 PUSH2 0x4DF SWAP2 SWAP1 PUSH2 0xDAE JUMP JUMPDEST PUSH2 0xB60 JUMP JUMPDEST PUSH1 0x40 MLOAD PUSH2 0x4F1 SWAP2 SWAP1 PUSH2 0xEE7 JUMP JUMPDEST PUSH1 0x40 MLOAD DUP1 SWAP2 SUB SWAP1 RETURN JUMPDEST PUSH2 0x514 PUSH1 0x4 DUP1 CALLDATASIZE SUB DUP2 ADD SWAP1 PUSH2 0x50F SWAP2 SWAP1 PUSH2 0xDAE JUMP JUMPDEST PUSH2 0xBCB JUMP JUMPDEST PUSH1 0x40 MLOAD PUSH2 0x521 SWAP2 SWAP1 PUSH2 0xFB2 JUMP JUMPDEST PUSH1 0x40 MLOAD DUP1 SWAP2 SUB SWAP1 RETURN JUMPDEST PUSH1 0xD SLOAD DUP2 JUMP JUMPDEST PUSH1 0x0 DUP1 SLOAD PUSH2 0x53D SWAP1 PUSH2 0x11B3 JUMP JUMPDEST DUP1 PUSH1 0x1F ADD PUSH1 0x20 DUP1 SWAP2 DIV MUL PUSH1 0x20 ADD PUSH1 0x40 MLOAD SWAP1 DUP2 ADD PUSH1 0x40 MSTORE DUP1 SWAP3 SWAP2 SWAP1 DUP2 DUP2 MSTORE PUSH1 0x20 ADD DUP3 DUP1 SLOAD PUSH2 0x569 SWAP1 PUSH2 0x11B3 JUMP JUMPDEST DUP1 ISZERO PUSH2 0x5B6 JUMPI DUP1 PUSH1 0x1F LT PUSH2 0x58B JUMPI PUSH2 0x100 DUP1 DUP4 SLOAD DIV MUL DUP4 MSTORE SWAP2 PUSH1 0x20 ADD SWAP2 PUSH2 0x5B6 JUMP JUMPDEST DUP3 ADD SWAP2 SWAP1 PUSH1 0x0 MSTORE PUSH1 0x20 PUSH1 0x0 KECCAK256 SWAP1 JUMPDEST DUP2 SLOAD DUP2 MSTORE SWAP1 PUSH1 0x1 ADD SWAP1 PUSH1 0x20 ADD DUP1 DUP4 GT PUSH2 0x599 JUMPI DUP3 SWAP1 SUB PUSH1 0x1F AND DUP3 ADD SWAP2 JUMPDEST POP POP POP POP POP DUP2 JUMP JUMPDEST PUSH1 0x8 PUSH1 0x0 SWAP1 SLOAD SWAP1 PUSH2 0x100 EXP SWAP1 DIV PUSH1 0xF0 SHL DUP2 JUMP JUMPDEST PUSH1 0x60 PUSH1 0x0 DUP1 SLOAD PUSH2 0x5E0 SWAP1 PUSH2 0x11B3 JUMP JUMPDEST DUP1 PUSH1 0x1F ADD PUSH1 0x20 DUP1 SWAP2 DIV MUL PUSH1 0x20 ADD PUSH1 0x40 MLOAD SWAP1 DUP2 ADD PUSH1 0x40 MSTORE DUP1 SWAP3 SWAP2 SWAP1 DUP2 DUP2 MSTORE PUSH1 0x20 ADD DUP3 DUP1 SLOAD PUSH2 0x60C SWAP1 PUSH2 0x11B3 JUMP JUMPDEST DUP1 ISZERO PUSH2 0x659 JUMPI DUP1 PUSH1 0x1F LT PUSH2 0x62E JUMPI PUSH2 0x100 DUP1 DUP4 SLOAD DIV MUL DUP4 MSTORE SWAP2 PUSH1 0x20 ADD SWAP2 PUSH2 0x659 JUMP JUMPDEST DUP3 ADD SWAP2 SWAP1 PUSH1 0x0 MSTORE PUSH1 0x20 PUSH1 0x0 KECCAK256 SWAP1 JUMPDEST DUP2 SLOAD DUP2 MSTORE SWAP1 PUSH1 0x1 ADD SWAP1 PUSH1 0x20 ADD DUP1 DUP4 GT PUSH2 0x63C JUMPI DUP3 SWAP1 SUB PUSH1 0x1F AND DUP3 ADD SWAP2 JUMPDEST POP POP POP POP POP SWAP1 POP SWAP1 JUMP JUMPDEST PUSH1 0x7 DUP2 SWAP1 DUP1 PUSH1 0x1 DUP2 SLOAD ADD DUP1 DUP3 SSTORE DUP1 SWAP2 POP POP PUSH1 0x1 SWAP1 SUB SWAP1 PUSH1 0x0 MSTORE PUSH1 0x20 PUSH1 0x0 KECCAK256 ADD PUSH1 0x0 SWAP1 SWAP2 SWAP1 SWAP2 SWAP1 SWAP2 POP SSTORE POP JUMP JUMPDEST PUSH1 0x0 PUSH1 0x7 DUP1 SLOAD SWAP1 POP SWAP1 POP SWAP1 JUMP JUMPDEST PUSH1 0x5 PUSH1 0x1 PUSH1 0x0 DUP3 DUP3 SLOAD PUSH2 0x6AF SWAP2 SWAP1 PUSH2 0x105B JUMP JUMPDEST SWAP3 POP POP DUP2 SWAP1 SSTORE POP JUMP JUMPDEST PUSH1 0x1 DUP1 PUSH1 0x0 DUP3 DUP3 SLOAD PUSH2 0x6CA SWAP2 SWAP1 PUSH2 0x105B JUMP JUMPDEST SWAP3 POP POP DUP2 SWAP1 SSTORE POP JUMP JUMPDEST PUSH1 0x2 DUP1 SLOAD SWAP1 PUSH2 0x100 EXP SWAP1 DIV PUSH1 0x0 SIGNEXTEND DUP2 JUMP JUMPDEST DUP1 PUSH1 0x1 DUP2 SWAP1 SSTORE POP POP JUMP JUMPDEST PUSH1 0x2 PUSH1 0x0 SWAP1 SLOAD SWAP1 PUSH2 0x100 EXP SWAP1 DIV PUSH2 0xFFFF AND DUP2 JUMP JUMPDEST PUSH1 0x9 DUP1 SLOAD PUSH2 0x70F SWAP1 PUSH2 0x11B3 JUMP JUMPDEST DUP1 PUSH1 0x1F ADD PUSH1 0x20 DUP1 SWAP2 DIV MUL PUSH1 0x20 ADD PUSH1 0x40 MLOAD SWAP1 DUP2 ADD PUSH1 0x40 MSTORE DUP1 SWAP3 SWAP2 SWAP1 DUP2 DUP2 MSTORE PUSH1 0x20 ADD DUP3 DUP1 SLOAD PUSH2 0x73B SWAP1 PUSH2 0x11B3 JUMP JUMPDEST DUP1 ISZERO PUSH2 0x788 JUMPI DUP1 PUSH1 0x1F LT PUSH2 0x75D JUMPI PUSH2 0x100 DUP1 DUP4 SLOAD DIV MUL DUP4 MSTORE SWAP2 PUSH1 0x20 ADD SWAP2 PUSH2 0x788 JUMP JUMPDEST DUP3 ADD SWAP2 SWAP1 PUSH1 0x0 MSTORE PUSH1 0x20 PUSH1 0x0 KECCAK256 SWAP1 JUMPDEST DUP2 SLOAD DUP2 MSTORE SWAP1 PUSH1 0x1 ADD SWAP1 PUSH1 0x20 ADD DUP1 DUP4 GT PUSH2 0x76B JUMPI DUP3 SWAP1 SUB PUSH1 0x1F AND DUP3 ADD SWAP2 JUMPDEST POP POP POP POP POP DUP2 JUMP JUMPDEST PUSH1 0x0 PUSH1 0x1 SLOAD SWAP1 POP SWAP1 JUMP JUMPDEST PUSH1 0x0 DUP1 PUSH1 0x2A SWAP1 POP DUP1 SWAP2 POP POP SWAP1 JUMP JUMPDEST PUSH1 0x0 PUSH1 0x1 SLOAD SWAP1 POP SWAP1 JUMP JUMPDEST PUSH1 0x9 DUP1 DUP1 SLOAD DUP1 PUSH2 0x7C1 SWAP1 PUSH2 0x11B3 JUMP JUMPDEST DUP1 PUSH1 0x1F DUP2 EQ PUSH2 0x7CF JUMPI PUSH2 0x7E5 JUMP JUMPDEST DUP4 PUSH1 0x0 MSTORE PUSH1 0x20 PUSH1 0x0 KECCAK256 PUSH1 0xFF NOT DUP5 AND DUP2 SSTORE PUSH1 0x3F SWAP4 POP POP JUMPDEST POP PUSH1 0x2 DUP3 ADD DUP4 SSTORE PUSH1 0x1 DUP2 ADD SWAP3 POP POP POP PUSH1 0x1 SWAP1 SUB DUP2 SLOAD PUSH1 0x1 AND ISZERO PUSH2 0x817 JUMPI SWAP1 PUSH1 0x0 MSTORE PUSH1 0x20 PUSH1 0x0 KECCAK256 SWAP1 PUSH1 0x20 SWAP2 DUP3 DUP3 DIV ADD SWAP2 SWAP1 MOD JUMPDEST PUSH32 0x6200000000000000000000000000000000000000000000000000000000000000 SWAP1 SWAP2 SWAP1 SWAP2 PUSH1 0x1F SUB PUSH2 0x100 EXP DUP2 SLOAD DUP2 PUSH1 0xFF MUL NOT AND SWAP1 PUSH32 0x100000000000000000000000000000000000000000000000000000000000000 DUP5 DIV MUL OR SWAP1 SSTORE POP JUMP JUMPDEST PUSH1 0x7 DUP2 DUP2 SLOAD DUP2 LT PUSH2 0x886 JUMPI PUSH1 0x0 DUP1 REVERT JUMPDEST SWAP1 PUSH1 0x0 MSTORE PUSH1 0x20 PUSH1 0x0 KECCAK256 ADD PUSH1 0x0 SWAP2 POP SWAP1 POP SLOAD DUP2 JUMP JUMPDEST PUSH1 0x7 DUP1 SLOAD DUP1 PUSH2 0x8AC JUMPI PUSH2 0x8AB PUSH2 0x12BD JUMP JUMPDEST JUMPDEST PUSH1 0x1 SWAP1 SUB DUP2 DUP2 SWAP1 PUSH1 0x0 MSTORE PUSH1 0x20 PUSH1 0x0 KECCAK256 ADD PUSH1 0x0 SWAP1 SSTORE SWAP1 SSTORE JUMP JUMPDEST JUMPDEST PUSH1 0x1 PUSH1 0xD SLOAD PUSH2 0x8D4 SWAP2 SWAP1 PUSH2 0x105B JUMP JUMPDEST PUSH1 0xA PUSH1 0xD SLOAD PUSH1 0x3 DUP2 LT PUSH2 0x8EA JUMPI PUSH2 0x8E9 PUSH2 0x12EC JUMP JUMPDEST JUMPDEST ADD DUP2 SWAP1 SSTORE POP PUSH1 0x1 PUSH1 0xD PUSH1 0x0 DUP3 DUP3 SLOAD PUSH2 0x902 SWAP2 SWAP1 PUSH2 0x105B JUMP JUMPDEST SWAP3 POP POP DUP2 SWAP1 SSTORE POP PUSH1 0x3 PUSH1 0xD SLOAD LT PUSH2 0x8C5 JUMPI JUMP JUMPDEST DUP1 PUSH1 0x0 SWAP1 DUP1 MLOAD SWAP1 PUSH1 0x20 ADD SWAP1 PUSH2 0x92B SWAP3 SWAP2 SWAP1 PUSH2 0xBE6 JUMP JUMPDEST POP POP JUMP JUMPDEST PUSH1 0xA DUP2 PUSH1 0x3 DUP2 LT PUSH2 0x93F JUMPI PUSH1 0x0 DUP1 REVERT JUMPDEST ADD PUSH1 0x0 SWAP2 POP SWAP1 POP SLOAD DUP2 JUMP JUMPDEST DUP1 PUSH1 0x3 DUP4 PUSH1 0xFF AND PUSH1 0x4 DUP2 LT PUSH2 0x962 JUMPI PUSH2 0x961 PUSH2 0x12EC JUMP JUMPDEST JUMPDEST ADD DUP2 SWAP1 SSTORE POP POP POP JUMP JUMPDEST PUSH2 0x1C8 PUSH1 0x2 PUSH1 0x0 PUSH2 0x100 EXP DUP2 SLOAD DUP2 PUSH2 0xFFFF MUL NOT AND SWAP1 DUP4 PUSH2 0xFFFF AND MUL OR SWAP1 SSTORE POP JUMP JUMPDEST JUMPDEST PUSH1 0x3 PUSH1 0xD SLOAD LT ISZERO PUSH2 0x9E1 JUMPI PUSH1 0x1 PUSH1 0xD SLOAD PUSH2 0x9A7 SWAP2 SWAP1 PUSH2 0x105B JUMP JUMPDEST PUSH1 0xA PUSH1 0xD SLOAD PUSH1 0x3 DUP2 LT PUSH2 0x9BD JUMPI PUSH2 0x9BC PUSH2 0x12EC JUMP JUMPDEST JUMPDEST ADD DUP2 SWAP1 SSTORE POP PUSH1 0x1 PUSH1 0xD PUSH1 0x0 DUP3 DUP3 SLOAD PUSH2 0x9D5 SWAP2 SWAP1 PUSH2 0x105B JUMP JUMPDEST SWAP3 POP POP DUP2 SWAP1 SSTORE POP PUSH2 0x98D JUMP JUMPDEST JUMP JUMPDEST PUSH1 0x8 PUSH1 0x2 SWAP1 SLOAD SWAP1 PUSH2 0x100 EXP SWAP1 DIV PUSH1 0xE8 SHL DUP2 JUMP JUMPDEST PUSH1 0x0 PUSH1 0x4 SWAP1 POP SWAP1 JUMP JUMPDEST PUSH32 0x6366000000000000000000000000000000000000000000000000000000000000 PUSH1 0x8 PUSH1 0x0 PUSH2 0x100 EXP DUP2 SLOAD DUP2 PUSH2 0xFFFF MUL NOT AND SWAP1 DUP4 PUSH1 0xF0 SHR MUL OR SWAP1 SSTORE POP PUSH32 0x6162640000000000000000000000000000000000000000000000000000000000 PUSH1 0x8 PUSH1 0x2 PUSH2 0x100 EXP DUP2 SLOAD DUP2 PUSH3 0xFFFFFF MUL NOT AND SWAP1 DUP4 PUSH1 0xE8 SHR MUL OR SWAP1 SSTORE POP JUMP JUMPDEST PUSH1 0x0 PUSH1 0xD SLOAD SWAP1 POP JUMPDEST PUSH1 0x3 DUP2 LT ISZERO PUSH2 0xAE2 JUMPI PUSH1 0x1 PUSH1 0xD SLOAD PUSH2 0xA9A SWAP2 SWAP1 PUSH2 0x105B JUMP JUMPDEST PUSH1 0xA PUSH1 0xD SLOAD PUSH1 0x3 DUP2 LT PUSH2 0xAB0 JUMPI PUSH2 0xAAF PUSH2 0x12EC JUMP JUMPDEST JUMPDEST ADD DUP2 SWAP1 SSTORE POP PUSH1 0x1 PUSH1 0xD PUSH1 0x0 DUP3 DUP3 SLOAD PUSH2 0xAC8 SWAP2 SWAP1 PUSH2 0x105B JUMP JUMPDEST SWAP3 POP POP DUP2 SWAP1 SSTORE POP DUP1 DUP1 PUSH2 0xADA SWAP1 PUSH2 0x1216 JUMP JUMPDEST SWAP2 POP POP PUSH2 0xA82 JUMP JUMPDEST POP JUMP JUMPDEST PUSH1 0x60 DUP1 PUSH1 0x0 DUP4 SGT ISZERO PUSH2 0xB11 JUMPI PUSH1 0x40 MLOAD DUP1 PUSH1 0x60 ADD PUSH1 0x40 MSTORE DUP1 PUSH1 0x22 DUP2 MSTORE PUSH1 0x20 ADD PUSH2 0x1402 PUSH1 0x22 SWAP2 CODECOPY SWAP1 POP PUSH2 0xB57 JUMP JUMPDEST PUSH1 0x0 DUP4 SLT ISZERO PUSH2 0xB3A JUMPI PUSH1 0x40 MLOAD DUP1 PUSH1 0x60 ADD PUSH1 0x40 MSTORE DUP1 PUSH1 0x22 DUP2 MSTORE PUSH1 0x20 ADD PUSH2 0x13E0 PUSH1 0x22 SWAP2 CODECOPY SWAP1 POP PUSH2 0xB56 JUMP JUMPDEST PUSH1 0x40 MLOAD DUP1 PUSH1 0x60 ADD PUSH1 0x40 MSTORE DUP1 PUSH1 0x2B DUP2 MSTORE PUSH1 0x20 ADD PUSH2 0x13B5 PUSH1 0x2B SWAP2 CODECOPY SWAP1 POP JUMPDEST JUMPDEST DUP1 SWAP2 POP POP SWAP2 SWAP1 POP JUMP JUMPDEST PUSH1 0x0 PUSH1 0x9 DUP3 DUP2 SLOAD PUSH2 0xB70 SWAP1 PUSH2 0x11B3 JUMP JUMPDEST DUP2 LT PUSH2 0xB7F JUMPI PUSH2 0xB7E PUSH2 0x12EC JUMP JUMPDEST JUMPDEST DUP2 SLOAD PUSH1 0x1 AND ISZERO PUSH2 0xB9E JUMPI SWAP1 PUSH1 0x0 MSTORE PUSH1 0x20 PUSH1 0x0 KECCAK256 SWAP1 PUSH1 0x20 SWAP2 DUP3 DUP3 DIV ADD SWAP2 SWAP1 MOD JUMPDEST SWAP1 SLOAD SWAP1 BYTE PUSH32 0x100000000000000000000000000000000000000000000000000000000000000 MUL SWAP1 POP SWAP2 SWAP1 POP JUMP JUMPDEST PUSH1 0x3 DUP2 PUSH1 0x4 DUP2 LT PUSH2 0xBDB JUMPI PUSH1 0x0 DUP1 REVERT JUMPDEST ADD PUSH1 0x0 SWAP2 POP SWAP1 POP SLOAD DUP2 JUMP JUMPDEST DUP3 DUP1 SLOAD PUSH2 0xBF2 SWAP1 PUSH2 0x11B3 JUMP JUMPDEST SWAP1 PUSH1 0x0 MSTORE PUSH1 0x20 PUSH1 0x0 KECCAK256 SWAP1 PUSH1 0x1F ADD PUSH1 0x20 SWAP1 DIV DUP2 ADD SWAP3 DUP3 PUSH2 0xC14 JUMPI PUSH1 0x0 DUP6 SSTORE PUSH2 0xC5B JUMP JUMPDEST DUP3 PUSH1 0x1F LT PUSH2 0xC2D JUMPI DUP1 MLOAD PUSH1 0xFF NOT AND DUP4 DUP1 ADD OR DUP6 SSTORE PUSH2 0xC5B JUMP JUMPDEST DUP3 DUP1 ADD PUSH1 0x1 ADD DUP6 SSTORE DUP3 ISZERO PUSH2 0xC5B JUMPI SWAP2 DUP3 ADD JUMPDEST DUP3 DUP2 GT ISZERO PUSH2 0xC5A JUMPI DUP3 MLOAD DUP3 SSTORE SWAP2 PUSH1 0x20 ADD SWAP2 SWAP1 PUSH1 0x1 ADD SWAP1 PUSH2 0xC3F JUMP JUMPDEST JUMPDEST POP SWAP1 POP PUSH2 0xC68 SWAP2 SWAP1 PUSH2 0xC6C JUMP JUMPDEST POP SWAP1 JUMP JUMPDEST JUMPDEST DUP1 DUP3 GT ISZERO PUSH2 0xC85 JUMPI PUSH1 0x0 DUP2 PUSH1 0x0 SWAP1 SSTORE POP PUSH1 0x1 ADD PUSH2 0xC6D JUMP JUMPDEST POP SWAP1 JUMP JUMPDEST PUSH1 0x0 PUSH2 0xC9C PUSH2 0xC97 DUP5 PUSH2 0xFF2 JUMP JUMPDEST PUSH2 0xFCD JUMP JUMPDEST SWAP1 POP DUP3 DUP2 MSTORE PUSH1 0x20 DUP2 ADD DUP5 DUP5 DUP5 ADD GT ISZERO PUSH2 0xCB8 JUMPI PUSH2 0xCB7 PUSH2 0x134F JUMP JUMPDEST JUMPDEST PUSH2 0xCC3 DUP5 DUP3 DUP6 PUSH2 0x1171 JUMP JUMPDEST POP SWAP4 SWAP3 POP POP POP JUMP JUMPDEST PUSH1 0x0 DUP2 CALLDATALOAD SWAP1 POP PUSH2 0xCDA DUP2 PUSH2 0x136F JUMP JUMPDEST SWAP3 SWAP2 POP POP JUMP JUMPDEST PUSH1 0x0 DUP3 PUSH1 0x1F DUP4 ADD SLT PUSH2 0xCF5 JUMPI PUSH2 0xCF4 PUSH2 0x134A JUMP JUMPDEST JUMPDEST DUP2 CALLDATALOAD PUSH2 0xD05 DUP5 DUP3 PUSH1 0x20 DUP7 ADD PUSH2 0xC89 JUMP JUMPDEST SWAP2 POP POP SWAP3 SWAP2 POP POP JUMP JUMPDEST PUSH1 0x0 DUP2 CALLDATALOAD SWAP1 POP PUSH2 0xD1D DUP2 PUSH2 0x1386 JUMP JUMPDEST SWAP3 SWAP2 POP POP JUMP JUMPDEST PUSH1 0x0 DUP2 CALLDATALOAD SWAP1 POP PUSH2 0xD32 DUP2 PUSH2 0x139D JUMP JUMPDEST SWAP3 SWAP2 POP POP JUMP JUMPDEST PUSH1 0x0 PUSH1 0x20 DUP3 DUP5 SUB SLT ISZERO PUSH2 0xD4E JUMPI PUSH2 0xD4D PUSH2 0x1359 JUMP JUMPDEST JUMPDEST PUSH1 0x0 PUSH2 0xD5C DUP5 DUP3 DUP6 ADD PUSH2 0xCCB JUMP JUMPDEST SWAP2 POP POP SWAP3 SWAP2 POP POP JUMP JUMPDEST PUSH1 0x0 PUSH1 0x20 DUP3 DUP5 SUB SLT ISZERO PUSH2 0xD7B JUMPI PUSH2 0xD7A PUSH2 0x1359 JUMP JUMPDEST JUMPDEST PUSH1 0x0 DUP3 ADD CALLDATALOAD PUSH8 0xFFFFFFFFFFFFFFFF DUP2 GT ISZERO PUSH2 0xD99 JUMPI PUSH2 0xD98 PUSH2 0x1354 JUMP JUMPDEST JUMPDEST PUSH2 0xDA5 DUP5 DUP3 DUP6 ADD PUSH2 0xCE0 JUMP JUMPDEST SWAP2 POP POP SWAP3 SWAP2 POP POP JUMP JUMPDEST PUSH1 0x0 PUSH1 0x20 DUP3 DUP5 SUB SLT ISZERO PUSH2 0xDC4 JUMPI PUSH2 0xDC3 PUSH2 0x1359 JUMP JUMPDEST JUMPDEST PUSH1 0x0 PUSH2 0xDD2 DUP5 DUP3 DUP6 ADD PUSH2 0xD0E JUMP JUMPDEST SWAP2 POP POP SWAP3 SWAP2 POP POP JUMP JUMPDEST PUSH1 0x0 DUP1 PUSH1 0x40 DUP4 DUP6 SUB SLT ISZERO PUSH2 0xDF2 JUMPI PUSH2 0xDF1 PUSH2 0x1359 JUMP JUMPDEST JUMPDEST PUSH1 0x0 PUSH2 0xE00 DUP6 DUP3 DUP7 ADD PUSH2 0xD23 JUMP JUMPDEST SWAP3 POP POP PUSH1 0x20 PUSH2 0xE11 DUP6 DUP3 DUP7 ADD PUSH2 0xD0E JUMP JUMPDEST SWAP2 POP POP SWAP3 POP SWAP3 SWAP1 POP JUMP JUMPDEST PUSH2 0xE24 DUP2 PUSH2 0x10B1 JUMP JUMPDEST DUP3 MSTORE POP POP JUMP JUMPDEST PUSH2 0xE33 DUP2 PUSH2 0x10DD JUMP JUMPDEST DUP3 MSTORE POP POP JUMP JUMPDEST PUSH2 0xE42 DUP2 PUSH2 0x1109 JUMP JUMPDEST DUP3 MSTORE POP POP JUMP JUMPDEST PUSH1 0x0 PUSH2 0xE53 DUP3 PUSH2 0x1023 JUMP JUMPDEST PUSH2 0xE5D DUP2 DUP6 PUSH2 0x1039 JUMP JUMPDEST SWAP4 POP PUSH2 0xE6D DUP2 DUP6 PUSH1 0x20 DUP7 ADD PUSH2 0x1180 JUMP JUMPDEST PUSH2 0xE76 DUP2 PUSH2 0x135E JUMP JUMPDEST DUP5 ADD SWAP2 POP POP SWAP3 SWAP2 POP POP JUMP JUMPDEST PUSH2 0xE8A DUP2 PUSH2 0x113F JUMP JUMPDEST DUP3 MSTORE POP POP JUMP JUMPDEST PUSH1 0x0 PUSH2 0xE9B DUP3 PUSH2 0x102E JUMP JUMPDEST PUSH2 0xEA5 DUP2 DUP6 PUSH2 0x104A JUMP JUMPDEST SWAP4 POP PUSH2 0xEB5 DUP2 DUP6 PUSH1 0x20 DUP7 ADD PUSH2 0x1180 JUMP JUMPDEST PUSH2 0xEBE DUP2 PUSH2 0x135E JUMP JUMPDEST DUP5 ADD SWAP2 POP POP SWAP3 SWAP2 POP POP JUMP JUMPDEST PUSH2 0xED2 DUP2 PUSH2 0x114C JUMP JUMPDEST DUP3 MSTORE POP POP JUMP JUMPDEST PUSH2 0xEE1 DUP2 PUSH2 0x115A JUMP JUMPDEST DUP3 MSTORE POP POP JUMP JUMPDEST PUSH1 0x0 PUSH1 0x20 DUP3 ADD SWAP1 POP PUSH2 0xEFC PUSH1 0x0 DUP4 ADD DUP5 PUSH2 0xE1B JUMP JUMPDEST SWAP3 SWAP2 POP POP JUMP JUMPDEST PUSH1 0x0 PUSH1 0x20 DUP3 ADD SWAP1 POP PUSH2 0xF17 PUSH1 0x0 DUP4 ADD DUP5 PUSH2 0xE2A JUMP JUMPDEST SWAP3 SWAP2 POP POP JUMP JUMPDEST PUSH1 0x0 PUSH1 0x20 DUP3 ADD SWAP1 POP PUSH2 0xF32 PUSH1 0x0 DUP4 ADD DUP5 PUSH2 0xE39 JUMP JUMPDEST SWAP3 SWAP2 POP POP JUMP JUMPDEST PUSH1 0x0 PUSH1 0x20 DUP3 ADD SWAP1 POP DUP2 DUP2 SUB PUSH1 0x0 DUP4 ADD MSTORE PUSH2 0xF52 DUP2 DUP5 PUSH2 0xE48 JUMP JUMPDEST SWAP1 POP SWAP3 SWAP2 POP POP JUMP JUMPDEST PUSH1 0x0 PUSH1 0x20 DUP3 ADD SWAP1 POP PUSH2 0xF6F PUSH1 0x0 DUP4 ADD DUP5 PUSH2 0xE81 JUMP JUMPDEST SWAP3 SWAP2 POP POP JUMP JUMPDEST PUSH1 0x0 PUSH1 0x20 DUP3 ADD SWAP1 POP DUP2 DUP2 SUB PUSH1 0x0 DUP4 ADD MSTORE PUSH2 0xF8F DUP2 DUP5 PUSH2 0xE90 JUMP JUMPDEST SWAP1 POP SWAP3 SWAP2 POP POP JUMP JUMPDEST PUSH1 0x0 PUSH1 0x20 DUP3 ADD SWAP1 POP PUSH2 0xFAC PUSH1 0x0 DUP4 ADD DUP5 PUSH2 0xEC9 JUMP JUMPDEST SWAP3 SWAP2 POP POP JUMP JUMPDEST PUSH1 0x0 PUSH1 0x20 DUP3 ADD SWAP1 POP PUSH2 0xFC7 PUSH1 0x0 DUP4 ADD DUP5 PUSH2 0xED8 JUMP JUMPDEST SWAP3 SWAP2 POP POP JUMP JUMPDEST PUSH1 0x0 PUSH2 0xFD7 PUSH2 0xFE8 JUMP JUMPDEST SWAP1 POP PUSH2 0xFE3 DUP3 DUP3 PUSH2 0x11E5 JUMP JUMPDEST SWAP2 SWAP1 POP JUMP JUMPDEST PUSH1 0x0 PUSH1 0x40 MLOAD SWAP1 POP SWAP1 JUMP JUMPDEST PUSH1 0x0 PUSH8 0xFFFFFFFFFFFFFFFF DUP3 GT ISZERO PUSH2 0x100D JUMPI PUSH2 0x100C PUSH2 0x131B JUMP JUMPDEST JUMPDEST PUSH2 0x1016 DUP3 PUSH2 0x135E JUMP JUMPDEST SWAP1 POP PUSH1 0x20 DUP2 ADD SWAP1 POP SWAP2 SWAP1 POP JUMP JUMPDEST PUSH1 0x0 DUP2 MLOAD SWAP1 POP SWAP2 SWAP1 POP JUMP JUMPDEST PUSH1 0x0 DUP2 MLOAD SWAP1 POP SWAP2 SWAP1 POP JUMP JUMPDEST PUSH1 0x0 DUP3 DUP3 MSTORE PUSH1 0x20 DUP3 ADD SWAP1 POP SWAP3 SWAP2 POP POP JUMP JUMPDEST PUSH1 0x0 DUP3 DUP3 MSTORE PUSH1 0x20 DUP3 ADD SWAP1 POP SWAP3 SWAP2 POP POP JUMP JUMPDEST PUSH1 0x0 PUSH2 0x1066 DUP3 PUSH2 0x115A JUMP JUMPDEST SWAP2 POP PUSH2 0x1071 DUP4 PUSH2 0x115A JUMP JUMPDEST SWAP3 POP DUP3 PUSH32 0xFFFFFFFFFFFFFFFFFFFFFFFFFFFFFFFFFFFFFFFFFFFFFFFFFFFFFFFFFFFFFFFF SUB DUP3 GT ISZERO PUSH2 0x10A6 JUMPI PUSH2 0x10A5 PUSH2 0x125F JUMP JUMPDEST JUMPDEST DUP3 DUP3 ADD SWAP1 POP SWAP3 SWAP2 POP POP JUMP JUMPDEST PUSH1 0x0 PUSH32 0xFF00000000000000000000000000000000000000000000000000000000000000 DUP3 AND SWAP1 POP SWAP2 SWAP1 POP JUMP JUMPDEST PUSH1 0x0 PUSH32 0xFFFF000000000000000000000000000000000000000000000000000000000000 DUP3 AND SWAP1 POP SWAP2 SWAP1 POP JUMP JUMPDEST PUSH1 0x0 PUSH32 0xFFFFFF0000000000000000000000000000000000000000000000000000000000 DUP3 AND SWAP1 POP SWAP2 SWAP1 POP JUMP JUMPDEST PUSH1 0x0 DUP2 SWAP1 POP SWAP2 SWAP1 POP JUMP JUMPDEST PUSH1 0x0 DUP2 PUSH1 0x0 SIGNEXTEND SWAP1 POP SWAP2 SWAP1 POP JUMP JUMPDEST PUSH1 0x0 PUSH2 0xFFFF DUP3 AND SWAP1 POP SWAP2 SWAP1 POP JUMP JUMPDEST PUSH1 0x0 DUP2 SWAP1 POP SWAP2 SWAP1 POP JUMP JUMPDEST PUSH1 0x0 PUSH1 0xFF DUP3 AND SWAP1 POP SWAP2 SWAP1 POP JUMP JUMPDEST DUP3 DUP2 DUP4 CALLDATACOPY PUSH1 0x0 DUP4 DUP4 ADD MSTORE POP POP POP JUMP JUMPDEST PUSH1 0x0 JUMPDEST DUP4 DUP2 LT ISZERO PUSH2 0x119E JUMPI DUP1 DUP3 ADD MLOAD DUP2 DUP5 ADD MSTORE PUSH1 0x20 DUP2 ADD SWAP1 POP PUSH2 0x1183 JUMP JUMPDEST DUP4 DUP2 GT ISZERO PUSH2 0x11AD JUMPI PUSH1 0x0 DUP5 DUP5 ADD MSTORE JUMPDEST POP POP POP POP JUMP JUMPDEST PUSH1 0x0 PUSH1 0x2 DUP3 DIV SWAP1 POP PUSH1 0x1 DUP3 AND DUP1 PUSH2 0x11CB JUMPI PUSH1 0x7F DUP3 AND SWAP2 POP JUMPDEST PUSH1 0x20 DUP3 LT DUP2 EQ ISZERO PUSH2 0x11DF JUMPI PUSH2 0x11DE PUSH2 0x128E JUMP JUMPDEST JUMPDEST POP SWAP2 SWAP1 POP JUMP JUMPDEST PUSH2 0x11EE DUP3 PUSH2 0x135E JUMP JUMPDEST DUP2 ADD DUP2 DUP2 LT PUSH8 0xFFFFFFFFFFFFFFFF DUP3 GT OR ISZERO PUSH2 0x120D JUMPI PUSH2 0x120C PUSH2 0x131B JUMP JUMPDEST JUMPDEST DUP1 PUSH1 0x40 MSTORE POP POP POP JUMP JUMPDEST PUSH1 0x0 PUSH2 0x1221 DUP3 PUSH2 0x115A JUMP JUMPDEST SWAP2 POP PUSH32 0xFFFFFFFFFFFFFFFFFFFFFFFFFFFFFFFFFFFFFFFFFFFFFFFFFFFFFFFFFFFFFFFF DUP3 EQ ISZERO PUSH2 0x1254 JUMPI PUSH2 0x1253 PUSH2 0x125F JUMP JUMPDEST JUMPDEST PUSH1 0x1 DUP3 ADD SWAP1 POP SWAP2 SWAP1 POP JUMP JUMPDEST PUSH32 0x4E487B7100000000000000000000000000000000000000000000000000000000 PUSH1 0x0 MSTORE PUSH1 0x11 PUSH1 0x4 MSTORE PUSH1 0x24 PUSH1 0x0 REVERT JUMPDEST PUSH32 0x4E487B7100000000000000000000000000000000000000000000000000000000 PUSH1 0x0 MSTORE PUSH1 0x22 PUSH1 0x4 MSTORE PUSH1 0x24 PUSH1 0x0 REVERT JUMPDEST PUSH32 0x4E487B7100000000000000000000000000000000000000000000000000000000 PUSH1 0x0 MSTORE PUSH1 0x31 PUSH1 0x4 MSTORE PUSH1 0x24 PUSH1 0x0 REVERT JUMPDEST PUSH32 0x4E487B7100000000000000000000000000000000000000000000000000000000 PUSH1 0x0 MSTORE PUSH1 0x32 PUSH1 0x4 MSTORE PUSH1 0x24 PUSH1 0x0 REVERT JUMPDEST PUSH32 0x4E487B7100000000000000000000000000000000000000000000000000000000 PUSH1 0x0 MSTORE PUSH1 0x41 PUSH1 0x4 MSTORE PUSH1 0x24 PUSH1 0x0 REVERT JUMPDEST PUSH1 0x0 DUP1 REVERT JUMPDEST PUSH1 0x0 DUP1 REVERT JUMPDEST PUSH1 0x0 DUP1 REVERT JUMPDEST PUSH1 0x0 DUP1 REVERT JUMPDEST PUSH1 0x0 PUSH1 0x1F NOT PUSH1 0x1F DUP4 ADD AND SWAP1 POP SWAP2 SWAP1 POP JUMP JUMPDEST PUSH2 0x1378 DUP2 PUSH2 0x1135 JUMP JUMPDEST DUP2 EQ PUSH2 0x1383 JUMPI PUSH1 0x0 DUP1 REVERT JUMPDEST POP JUMP JUMPDEST PUSH2 0x138F DUP2 PUSH2 0x115A JUMP JUMPDEST DUP2 EQ PUSH2 0x139A JUMPI PUSH1 0x0 DUP1 REVERT JUMPDEST POP JUMP JUMPDEST PUSH2 0x13A6 DUP2 PUSH2 0x1164 JUMP JUMPDEST DUP2 EQ PUSH2 0x13B1 JUMPI PUSH1 0x0 DUP1 REVERT JUMPDEST POP JUMP INVALID MSIZE PUSH16 0x7572207661726961626C652069732063 PUSH16 0x6E7461696E696E67206E756D65726963 KECCAK256 PUSH27 0x65726F283029596F7572207661726961626C6520686F6C64277320 PUSH2 0x2028 0x2D 0x29 PUSH23 0x652076616C7565596F7572207661726961626C6520686F PUSH13 0x642773206120282B2976652076 PUSH2 0x6C75 PUSH6 0xA26469706673 PC 0x22 SLT KECCAK256 DUP3 SSTORE EXTCODESIZE CALLCODE LOG1 PUSH3 0xE4B156 SWAP13 0xC1 0x49 DELEGATECALL 0xDC 0xC6 PUSH29 0xF6C6A69D4D50965FD630C06CE0FCADDA64736F6C634300080700330000 "
		},
		"gasEstimates": {
			"creation": {
				"codeDepositCost": "1041800",
				"executionCost": "infinite",
				"totalCost": "infinite"
			},
			"external": {
				"b2()": "2562",
				"b3()": "2588",
				"count()": "2476",
				"doWhile()": "infinite",
				"dynamicArray(uint256)": "infinite",
				"dynamicBytesArray()": "infinite",
				"dynamicSetter(uint256)": "22610",
				"forLoop()": "infinite",
				"getAge()": "2504",
				"getDynamicArrayLength()": "2535",
				"getDynamicBytesArray(uint256)": "7278",
				"getName()": "infinite",
				"getStaticArrayLength()": "426",
				"getter()": "2548",
				"myArray(uint256)": "infinite",
				"myConditions(int256)": "infinite",
				"myIntVar()": "2590",
				"name()": "infinite",
				"popElementFromDynamicArray()": "29535",
				"pushDynamicBytesArray()": "74866",
				"pushElementInDynamicArray(uint256)": "46897",
				"setAge()": "infinite",
				"setArray(uint8,uint256)": "22823",
				"setBytesArrayVar()": "48839",
				"setName(string)": "infinite",
				"setStateVar()": "24522",
				"setter()": "infinite",
				"stateVar()": "2583",
				"staticArray(uint256)": "infinite",
				"store()": "439",
				"whileLoop()": "infinite"
			}
		},
		"methodIdentifiers": {
			"b2()": "0add6ef2",
			"b3()": "e9b61909",
			"count()": "06661abd",
			"doWhile()": "c0d44075",
			"dynamicArray(uint256)": "9a9bdca7",
			"dynamicBytesArray()": "7e6eab0e",
			"dynamicSetter(uint256)": "5d4a10fa",
			"forLoop()": "fc0e6008",
			"getAge()": "967e6e65",
			"getDynamicArrayLength()": "302c3cfa",
			"getDynamicBytesArray(uint256)": "fe89eada",
			"getName()": "17d7de7c",
			"getStaticArrayLength()": "ec025698",
			"getter()": "993a04b7",
			"myArray(uint256)": "cc3e57d9",
			"myConditions(int256)": "fcc99582",
			"myIntVar()": "4a8e5f59",
			"name()": "06fdde03",
			"popElementFromDynamicArray()": "a521bfd1",
			"pushDynamicBytesArray()": "99d39d93",
			"pushElementInDynamicArray(uint256)": "195f0f0e",
			"setAge()": "457676ee",
			"setArray(uint8,uint256)": "d22d9006",
			"setBytesArrayVar()": "f7a3bdf7",
			"setName(string)": "c47f0027",
			"setStateVar()": "dd8842a4",
			"setter()": "3f3108f7",
			"stateVar()": "793816ec",
			"staticArray(uint256)": "ffbb24d4",
			"store()": "975057e7",
			"whileLoop()": "e7c898ef"
		}
	},
	"abi": [
		{
			"inputs": [
				{
					"internalType": "string",
					"name": "yourName",
					"type": "string"
				}
			],
			"stateMutability": "nonpayable",
			"type": "constructor"
		},
		{
			"inputs": [],
			"name": "b2",
			"outputs": [
				{
					"internalType": "bytes2",
					"name": "",
					"type": "bytes2"
				}
			],
			"stateMutability": "view",
			"type": "function"
		},
		{
			"inputs": [],
			"name": "b3",
			"outputs": [
				{
					"internalType": "bytes3",
					"name": "",
					"type": "bytes3"
				}
			],
			"stateMutability": "view",
			"type": "function"
		},
		{
			"inputs": [],
			"name": "count",
			"outputs": [
				{
					"internalType": "uint256",
					"name": "",
					"type": "uint256"
				}
			],
			"stateMutability": "view",
			"type": "function"
		},
		{
			"inputs": [],
			"name": "doWhile",
			"outputs": [],
			"stateMutability": "nonpayable",
			"type": "function"
		},
		{
			"inputs": [
				{
					"internalType": "uint256",
					"name": "",
					"type": "uint256"
				}
			],
			"name": "dynamicArray",
			"outputs": [
				{
					"internalType": "uint256",
					"name": "",
					"type": "uint256"
				}
			],
			"stateMutability": "view",
			"type": "function"
		},
		{
			"inputs": [],
			"name": "dynamicBytesArray",
			"outputs": [
				{
					"internalType": "bytes",
					"name": "",
					"type": "bytes"
				}
			],
			"stateMutability": "view",
			"type": "function"
		},
		{
			"inputs": [
				{
					"internalType": "uint256",
					"name": "newAge",
					"type": "uint256"
				}
			],
			"name": "dynamicSetter",
			"outputs": [],
			"stateMutability": "nonpayable",
			"type": "function"
		},
		{
			"inputs": [],
			"name": "forLoop",
			"outputs": [],
			"stateMutability": "nonpayable",
			"type": "function"
		},
		{
			"inputs": [],
			"name": "getAge",
			"outputs": [
				{
					"internalType": "uint256",
					"name": "",
					"type": "uint256"
				}
			],
			"stateMutability": "view",
			"type": "function"
		},
		{
			"inputs": [],
			"name": "getDynamicArrayLength",
			"outputs": [
				{
					"internalType": "uint256",
					"name": "",
					"type": "uint256"
				}
			],
			"stateMutability": "view",
			"type": "function"
		},
		{
			"inputs": [
				{
					"internalType": "uint256",
					"name": "i",
					"type": "uint256"
				}
			],
			"name": "getDynamicBytesArray",
			"outputs": [
				{
					"internalType": "bytes1",
					"name": "",
					"type": "bytes1"
				}
			],
			"stateMutability": "view",
			"type": "function"
		},
		{
			"inputs": [],
			"name": "getName",
			"outputs": [
				{
					"internalType": "string",
					"name": "",
					"type": "string"
				}
			],
			"stateMutability": "view",
			"type": "function"
		},
		{
			"inputs": [],
			"name": "getStaticArrayLength",
			"outputs": [
				{
					"internalType": "uint256",
					"name": "",
					"type": "uint256"
				}
			],
			"stateMutability": "view",
			"type": "function"
		},
		{
			"inputs": [],
			"name": "getter",
			"outputs": [
				{
					"internalType": "uint256",
					"name": "",
					"type": "uint256"
				}
			],
			"stateMutability": "view",
			"type": "function"
		},
		{
			"inputs": [
				{
					"internalType": "uint256",
					"name": "",
					"type": "uint256"
				}
			],
			"name": "myArray",
			"outputs": [
				{
					"internalType": "uint256",
					"name": "",
					"type": "uint256"
				}
			],
			"stateMutability": "view",
			"type": "function"
		},
		{
			"inputs": [
				{
					"internalType": "int256",
					"name": "myVar",
					"type": "int256"
				}
			],
			"name": "myConditions",
			"outputs": [
				{
					"internalType": "string",
					"name": "",
					"type": "string"
				}
			],
			"stateMutability": "pure",
			"type": "function"
		},
		{
			"inputs": [],
			"name": "myIntVar",
			"outputs": [
				{
					"internalType": "int8",
					"name": "",
					"type": "int8"
				}
			],
			"stateMutability": "view",
			"type": "function"
		},
		{
			"inputs": [],
			"name": "name",
			"outputs": [
				{
					"internalType": "string",
					"name": "",
					"type": "string"
				}
			],
			"stateMutability": "view",
			"type": "function"
		},
		{
			"inputs": [],
			"name": "popElementFromDynamicArray",
			"outputs": [],
			"stateMutability": "nonpayable",
			"type": "function"
		},
		{
			"inputs": [],
			"name": "pushDynamicBytesArray",
			"outputs": [],
			"stateMutability": "nonpayable",
			"type": "function"
		},
		{
			"inputs": [
				{
					"internalType": "uint256",
					"name": "item",
					"type": "uint256"
				}
			],
			"name": "pushElementInDynamicArray",
			"outputs": [],
			"stateMutability": "nonpayable",
			"type": "function"
		},
		{
			"inputs": [],
			"name": "setAge",
			"outputs": [],
			"stateMutability": "nonpayable",
			"type": "function"
		},
		{
			"inputs": [
				{
					"internalType": "uint8",
					"name": "index",
					"type": "uint8"
				},
				{
					"internalType": "uint256",
					"name": "value",
					"type": "uint256"
				}
			],
			"name": "setArray",
			"outputs": [],
			"stateMutability": "nonpayable",
			"type": "function"
		},
		{
			"inputs": [],
			"name": "setBytesArrayVar",
			"outputs": [],
			"stateMutability": "nonpayable",
			"type": "function"
		},
		{
			"inputs": [
				{
					"internalType": "string",
					"name": "newName",
					"type": "string"
				}
			],
			"name": "setName",
			"outputs": [],
			"stateMutability": "nonpayable",
			"type": "function"
		},
		{
			"inputs": [],
			"name": "setStateVar",
			"outputs": [],
			"stateMutability": "nonpayable",
			"type": "function"
		},
		{
			"inputs": [],
			"name": "setter",
			"outputs": [],
			"stateMutability": "nonpayable",
			"type": "function"
		},
		{
			"inputs": [],
			"name": "stateVar",
			"outputs": [
				{
					"internalType": "uint16",
					"name": "",
					"type": "uint16"
				}
			],
			"stateMutability": "view",
			"type": "function"
		},
		{
			"inputs": [
				{
					"internalType": "uint256",
					"name": "",
					"type": "uint256"
				}
			],
			"name": "staticArray",
			"outputs": [
				{
					"internalType": "uint256",
					"name": "",
					"type": "uint256"
				}
			],
			"stateMutability": "view",
			"type": "function"
		},
		{
			"inputs": [],
			"name": "store",
			"outputs": [
				{
					"internalType": "uint256",
					"name": "",
					"type": "uint256"
				}
			],
			"stateMutability": "pure",
			"type": "function"
		},
		{
			"inputs": [],
			"name": "whileLoop",
			"outputs": [],
			"stateMutability": "nonpayable",
			"type": "function"
		}
	]
}