{
	"data": {
		"bytecode": {
			"linkReferences": {},
			"object": "6080604052600a6001556040518060400160405280600181526020017f6100000000000000000000000000000000000000000000000000000000000000815250600990805190602001906200005692919062000151565b503480156200006457600080fd5b50604051620018103803806200181083398181016040528101906200008a91906200035a565b8060009080519060200190620000a2929190620001e2565b50601a600181905550607b600260006101000a81548161ffff021916908361ffff1602179055507fffffffffffffffffffffffffffffffffffffffffffffffffffffffffffffff816002806101000a81548160ff021916908360000b60ff1602179055506040518060800160405280600b60ff168152602001600c60ff168152602001600d60ff168152602001600e60ff1681525060039060046200014992919062000273565b50506200052f565b8280546200015f9062000440565b90600052602060002090601f016020900481019282620001835760008555620001cf565b82601f106200019e57805160ff1916838001178555620001cf565b82800160010185558215620001cf579182015b82811115620001ce578251825591602001919060010190620001b1565b5b509050620001de9190620002bd565b5090565b828054620001f09062000440565b90600052602060002090601f01602090048101928262000214576000855562000260565b82601f106200022f57805160ff191683800117855562000260565b8280016001018555821562000260579182015b828111156200025f57825182559160200191906001019062000242565b5b5090506200026f9190620002bd565b5090565b8260048101928215620002aa579160200282015b82811115620002a9578251829060ff1690559160200191906001019062000287565b5b509050620002b99190620002bd565b5090565b5b80821115620002d8576000816000905550600101620002be565b5090565b6000620002f3620002ed84620003d4565b620003ab565b9050828152602081018484840111156200031257620003116200050f565b5b6200031f8482856200040a565b509392505050565b600082601f8301126200033f576200033e6200050a565b5b815162000351848260208601620002dc565b91505092915050565b60006020828403121562000373576200037262000519565b5b600082015167ffffffffffffffff81111562000394576200039362000514565b5b620003a28482850162000327565b91505092915050565b6000620003b7620003ca565b9050620003c5828262000476565b919050565b6000604051905090565b600067ffffffffffffffff821115620003f257620003f1620004db565b5b620003fd826200051e565b9050602081019050919050565b60005b838110156200042a5780820151818401526020810190506200040d565b838111156200043a576000848401525b50505050565b600060028204905060018216806200045957607f821691505b6020821081141562000470576200046f620004ac565b5b50919050565b62000481826200051e565b810181811067ffffffffffffffff82111715620004a357620004a2620004db565b5b80604052505050565b7f4e487b7100000000000000000000000000000000000000000000000000000000600052602260045260246000fd5b7f4e487b7100000000000000000000000000000000000000000000000000000000600052604160045260246000fd5b600080fd5b600080fd5b600080fd5b600080fd5b6000601f19601f8301169050919050565b6112d1806200053f6000396000f3fe608060405234801561001057600080fd5b50600436106101da5760003560e01c806399d39d9311610104578063dd8842a4116100a2578063f7a3bdf711610071578063f7a3bdf71461047b578063fc0e600814610485578063fe89eada1461048f578063ffbb24d4146104bf576101da565b8063dd8842a41461042b578063e7c898ef14610435578063e9b619091461043f578063ec0256981461045d576101da565b8063c0d44075116100de578063c0d44075146103b9578063c47f0027146103c3578063cc3e57d9146103df578063d22d90061461040f576101da565b806399d39d93146103755780639a9bdca71461037f578063a521bfd1146103af576101da565b8063457676ee1161017c5780637e6eab0e1161014b5780637e6eab0e146102fd578063967e6e651461031b578063975057e714610339578063993a04b714610357576101da565b8063457676ee1461029b5780634a8e5f59146102a55780635d4a10fa146102c3578063793816ec146102df576101da565b806317d7de7c116101b857806317d7de7c14610239578063195f0f0e14610257578063302c3cfa146102735780633f3108f714610291576101da565b806306661abd146101df57806306fdde03146101fd5780630add6ef21461021b575b600080fd5b6101e76104ef565b6040516101f49190610eba565b60405180910390f35b6102056104f5565b6040516102129190610e7d565b60405180910390f35b610223610583565b6040516102309190610e0a565b60405180910390f35b610241610596565b60405161024e9190610e7d565b60405180910390f35b610271600480360381019061026c9190610cb6565b610628565b005b61027b610654565b6040516102889190610eba565b60405180910390f35b610299610661565b005b6102a361067d565b005b6102ad610698565b6040516102ba9190610e62565b60405180910390f35b6102dd60048036038101906102d89190610cb6565b6106a9565b005b6102e76106b3565b6040516102f49190610e9f565b60405180910390f35b6103056106c7565b6040516103129190610e40565b60405180910390f35b610323610755565b6040516103309190610eba565b60405180910390f35b61034161075f565b60405161034e9190610eba565b60405180910390f35b61035f61076d565b60405161036c9190610eba565b60405180910390f35b61037d610777565b005b61039960048036038101906103949190610cb6565b61083b565b6040516103a69190610eba565b60405180910390f35b6103b761085f565b005b6103c1610889565b005b6103dd60048036038101906103d89190610c6d565b6108da565b005b6103f960048036038101906103f49190610cb6565b6108f4565b6040516104069190610eba565b60405180910390f35b61042960048036038101906104249190610ce3565b61090f565b005b610433610930565b005b61043d610951565b005b6104476109a8565b6040516104549190610e25565b60405180910390f35b6104656109bb565b6040516104729190610eba565b60405180910390f35b6104836109c4565b005b61048d610a3f565b005b6104a960048036038101906104a49190610cb6565b610aaa565b6040516104b69190610def565b60405180910390f35b6104d960048036038101906104d49190610cb6565b610b15565b6040516104e69190610eba565b60405180910390f35b600d5481565b60008054610502906110b1565b80601f016020809104026020016040519081016040528092919081815260200182805461052e906110b1565b801561057b5780601f106105505761010080835404028352916020019161057b565b820191906000526020600020905b81548152906001019060200180831161055e57829003601f168201915b505050505081565b600860009054906101000a900460f01b81565b6060600080546105a5906110b1565b80601f01602080910402602001604051908101604052809291908181526020018280546105d1906110b1565b801561061e5780601f106105f35761010080835404028352916020019161061e565b820191906000526020600020905b81548152906001019060200180831161060157829003601f168201915b5050505050905090565b600781908060018154018082558091505060019003906000526020600020016000909190919091505550565b6000600780549050905090565b6005600160008282546106749190610f63565b92505081905550565b600180600082825461068f9190610f63565b92505081905550565b60028054906101000a900460000b81565b8060018190555050565b600260009054906101000a900461ffff1681565b600980546106d4906110b1565b80601f0160208091040260200160405190810160405280929190818152602001828054610700906110b1565b801561074d5780601f106107225761010080835404028352916020019161074d565b820191906000526020600020905b81548152906001019060200180831161073057829003601f168201915b505050505081565b6000600154905090565b600080602a90508091505090565b6000600154905090565b600980805480610786906110b1565b80601f8114610794576107aa565b83600052602060002060ff1984168155603f9350505b506002820183556001810192505050600190038154600116156107dc5790600052602060002090602091828204019190065b7f620000000000000000000000000000000000000000000000000000000000000090919091601f036101000a81548160ff021916907f010000000000000000000000000000000000000000000000000000000000000084040217905550565b6007818154811061084b57600080fd5b906000526020600020016000915090505481565b6007805480610871576108706111bb565b5b60019003818190600052602060002001600090559055565b5b6001600d546108999190610f63565b600a600d54600381106108af576108ae6111ea565b5b01819055506001600d60008282546108c79190610f63565b925050819055506003600d541061088a57565b80600090805190602001906108f0929190610b30565b5050565b600a816003811061090457600080fd5b016000915090505481565b8060038360ff1660048110610927576109266111ea565b5b01819055505050565b6101c8600260006101000a81548161ffff021916908361ffff160217905550565b5b6003600d5410156109a6576001600d5461096c9190610f63565b600a600d5460038110610982576109816111ea565b5b01819055506001600d600082825461099a9190610f63565b92505081905550610952565b565b600860029054906101000a900460e81b81565b60006004905090565b7f6366000000000000000000000000000000000000000000000000000000000000600860006101000a81548161ffff021916908360f01c02179055507f6162640000000000000000000000000000000000000000000000000000000000600860026101000a81548162ffffff021916908360e81c0217905550565b6000600d5490505b6003811015610aa7576001600d54610a5f9190610f63565b600a600d5460038110610a7557610a746111ea565b5b01819055506001600d6000828254610a8d9190610f63565b925050819055508080610a9f90611114565b915050610a47565b50565b60006009828154610aba906110b1565b8110610ac957610ac86111ea565b5b815460011615610ae85790600052602060002090602091828204019190065b9054901a7f0100000000000000000000000000000000000000000000000000000000000000029050919050565b60038160048110610b2557600080fd5b016000915090505481565b828054610b3c906110b1565b90600052602060002090601f016020900481019282610b5e5760008555610ba5565b82601f10610b7757805160ff1916838001178555610ba5565b82800160010185558215610ba5579182015b82811115610ba4578251825591602001919060010190610b89565b5b509050610bb29190610bb6565b5090565b5b80821115610bcf576000816000905550600101610bb7565b5090565b6000610be6610be184610efa565b610ed5565b905082815260208101848484011115610c0257610c0161124d565b5b610c0d84828561106f565b509392505050565b600082601f830112610c2a57610c29611248565b5b8135610c3a848260208601610bd3565b91505092915050565b600081359050610c528161126d565b92915050565b600081359050610c6781611284565b92915050565b600060208284031215610c8357610c82611257565b5b600082013567ffffffffffffffff811115610ca157610ca0611252565b5b610cad84828501610c15565b91505092915050565b600060208284031215610ccc57610ccb611257565b5b6000610cda84828501610c43565b91505092915050565b60008060408385031215610cfa57610cf9611257565b5b6000610d0885828601610c58565b9250506020610d1985828601610c43565b9150509250929050565b610d2c81610fb9565b82525050565b610d3b81610fe5565b82525050565b610d4a81611011565b82525050565b6000610d5b82610f2b565b610d658185610f41565b9350610d7581856020860161107e565b610d7e8161125c565b840191505092915050565b610d928161103d565b82525050565b6000610da382610f36565b610dad8185610f52565b9350610dbd81856020860161107e565b610dc68161125c565b840191505092915050565b610dda8161104a565b82525050565b610de981611058565b82525050565b6000602082019050610e046000830184610d23565b92915050565b6000602082019050610e1f6000830184610d32565b92915050565b6000602082019050610e3a6000830184610d41565b92915050565b60006020820190508181036000830152610e5a8184610d50565b905092915050565b6000602082019050610e776000830184610d89565b92915050565b60006020820190508181036000830152610e978184610d98565b905092915050565b6000602082019050610eb46000830184610dd1565b92915050565b6000602082019050610ecf6000830184610de0565b92915050565b6000610edf610ef0565b9050610eeb82826110e3565b919050565b6000604051905090565b600067ffffffffffffffff821115610f1557610f14611219565b5b610f1e8261125c565b9050602081019050919050565b600081519050919050565b600081519050919050565b600082825260208201905092915050565b600082825260208201905092915050565b6000610f6e82611058565b9150610f7983611058565b9250827fffffffffffffffffffffffffffffffffffffffffffffffffffffffffffffffff03821115610fae57610fad61115d565b5b828201905092915050565b60007fff0000000000000000000000000000000000000000000000000000000000000082169050919050565b60007fffff00000000000000000000000000000000000000000000000000000000000082169050919050565b60007fffffff000000000000000000000000000000000000000000000000000000000082169050919050565b60008160000b9050919050565b600061ffff82169050919050565b6000819050919050565b600060ff82169050919050565b82818337600083830152505050565b60005b8381101561109c578082015181840152602081019050611081565b838111156110ab576000848401525b50505050565b600060028204905060018216806110c957607f821691505b602082108114156110dd576110dc61118c565b5b50919050565b6110ec8261125c565b810181811067ffffffffffffffff8211171561110b5761110a611219565b5b80604052505050565b600061111f82611058565b91507fffffffffffffffffffffffffffffffffffffffffffffffffffffffffffffffff8214156111525761115161115d565b5b600182019050919050565b7f4e487b7100000000000000000000000000000000000000000000000000000000600052601160045260246000fd5b7f4e487b7100000000000000000000000000000000000000000000000000000000600052602260045260246000fd5b7f4e487b7100000000000000000000000000000000000000000000000000000000600052603160045260246000fd5b7f4e487b7100000000000000000000000000000000000000000000000000000000600052603260045260246000fd5b7f4e487b7100000000000000000000000000000000000000000000000000000000600052604160045260246000fd5b600080fd5b600080fd5b600080fd5b600080fd5b6000601f19601f8301169050919050565b61127681611058565b811461128157600080fd5b50565b61128d81611062565b811461129857600080fd5b5056fea26469706673582212200a6a1f029e228129e9ae43627bbffbc99f21aaa62848e3dc28a40966680e9c0264736f6c63430008070033",
			"opcodes": "PUSH1 0x80 PUSH1 0x40 MSTORE PUSH1 0xA PUSH1 0x1 SSTORE PUSH1 0x40 MLOAD DUP1 PUSH1 0x40 ADD PUSH1 0x40 MSTORE DUP1 PUSH1 0x1 DUP2 MSTORE PUSH1 0x20 ADD PUSH32 0x6100000000000000000000000000000000000000000000000000000000000000 DUP2 MSTORE POP PUSH1 0x9 SWAP1 DUP1 MLOAD SWAP1 PUSH1 0x20 ADD SWAP1 PUSH3 0x56 SWAP3 SWAP2 SWAP1 PUSH3 0x151 JUMP JUMPDEST POP CALLVALUE DUP1 ISZERO PUSH3 0x64 JUMPI PUSH1 0x0 DUP1 REVERT JUMPDEST POP PUSH1 0x40 MLOAD PUSH3 0x1810 CODESIZE SUB DUP1 PUSH3 0x1810 DUP4 CODECOPY DUP2 DUP2 ADD PUSH1 0x40 MSTORE DUP2 ADD SWAP1 PUSH3 0x8A SWAP2 SWAP1 PUSH3 0x35A JUMP JUMPDEST DUP1 PUSH1 0x0 SWAP1 DUP1 MLOAD SWAP1 PUSH1 0x20 ADD SWAP1 PUSH3 0xA2 SWAP3 SWAP2 SWAP1 PUSH3 0x1E2 JUMP JUMPDEST POP PUSH1 0x1A PUSH1 0x1 DUP2 SWAP1 SSTORE POP PUSH1 0x7B PUSH1 0x2 PUSH1 0x0 PUSH2 0x100 EXP DUP2 SLOAD DUP2 PUSH2 0xFFFF MUL NOT AND SWAP1 DUP4 PUSH2 0xFFFF AND MUL OR SWAP1 SSTORE POP PUSH32 0xFFFFFFFFFFFFFFFFFFFFFFFFFFFFFFFFFFFFFFFFFFFFFFFFFFFFFFFFFFFFFF81 PUSH1 0x2 DUP1 PUSH2 0x100 EXP DUP2 SLOAD DUP2 PUSH1 0xFF MUL NOT AND SWAP1 DUP4 PUSH1 0x0 SIGNEXTEND PUSH1 0xFF AND MUL OR SWAP1 SSTORE POP PUSH1 0x40 MLOAD DUP1 PUSH1 0x80 ADD PUSH1 0x40 MSTORE DUP1 PUSH1 0xB PUSH1 0xFF AND DUP2 MSTORE PUSH1 0x20 ADD PUSH1 0xC PUSH1 0xFF AND DUP2 MSTORE PUSH1 0x20 ADD PUSH1 0xD PUSH1 0xFF AND DUP2 MSTORE PUSH1 0x20 ADD PUSH1 0xE PUSH1 0xFF AND DUP2 MSTORE POP PUSH1 0x3 SWAP1 PUSH1 0x4 PUSH3 0x149 SWAP3 SWAP2 SWAP1 PUSH3 0x273 JUMP JUMPDEST POP POP PUSH3 0x52F JUMP JUMPDEST DUP3 DUP1 SLOAD PUSH3 0x15F SWAP1 PUSH3 0x440 JUMP JUMPDEST SWAP1 PUSH1 0x0 MSTORE PUSH1 0x20 PUSH1 0x0 KECCAK256 SWAP1 PUSH1 0x1F ADD PUSH1 0x20 SWAP1 DIV DUP2 ADD SWAP3 DUP3 PUSH3 0x183 JUMPI PUSH1 0x0 DUP6 SSTORE PUSH3 0x1CF JUMP JUMPDEST DUP3 PUSH1 0x1F LT PUSH3 0x19E JUMPI DUP1 MLOAD PUSH1 0xFF NOT AND DUP4 DUP1 ADD OR DUP6 SSTORE PUSH3 0x1CF JUMP JUMPDEST DUP3 DUP1 ADD PUSH1 0x1 ADD DUP6 SSTORE DUP3 ISZERO PUSH3 0x1CF JUMPI SWAP2 DUP3 ADD JUMPDEST DUP3 DUP2 GT ISZERO PUSH3 0x1CE JUMPI DUP3 MLOAD DUP3 SSTORE SWAP2 PUSH1 0x20 ADD SWAP2 SWAP1 PUSH1 0x1 ADD SWAP1 PUSH3 0x1B1 JUMP JUMPDEST JUMPDEST POP SWAP1 POP PUSH3 0x1DE SWAP2 SWAP1 PUSH3 0x2BD JUMP JUMPDEST POP SWAP1 JUMP JUMPDEST DUP3 DUP1 SLOAD PUSH3 0x1F0 SWAP1 PUSH3 0x440 JUMP JUMPDEST SWAP1 PUSH1 0x0 MSTORE PUSH1 0x20 PUSH1 0x0 KECCAK256 SWAP1 PUSH1 0x1F ADD PUSH1 0x20 SWAP1 DIV DUP2 ADD SWAP3 DUP3 PUSH3 0x214 JUMPI PUSH1 0x0 DUP6 SSTORE PUSH3 0x260 JUMP JUMPDEST DUP3 PUSH1 0x1F LT PUSH3 0x22F JUMPI DUP1 MLOAD PUSH1 0xFF NOT AND DUP4 DUP1 ADD OR DUP6 SSTORE PUSH3 0x260 JUMP JUMPDEST DUP3 DUP1 ADD PUSH1 0x1 ADD DUP6 SSTORE DUP3 ISZERO PUSH3 0x260 JUMPI SWAP2 DUP3 ADD JUMPDEST DUP3 DUP2 GT ISZERO PUSH3 0x25F JUMPI DUP3 MLOAD DUP3 SSTORE SWAP2 PUSH1 0x20 ADD SWAP2 SWAP1 PUSH1 0x1 ADD SWAP1 PUSH3 0x242 JUMP JUMPDEST JUMPDEST POP SWAP1 POP PUSH3 0x26F SWAP2 SWAP1 PUSH3 0x2BD JUMP JUMPDEST POP SWAP1 JUMP JUMPDEST DUP3 PUSH1 0x4 DUP2 ADD SWAP3 DUP3 ISZERO PUSH3 0x2AA JUMPI SWAP2 PUSH1 0x20 MUL DUP3 ADD JUMPDEST DUP3 DUP2 GT ISZERO PUSH3 0x2A9 JUMPI DUP3 MLOAD DUP3 SWAP1 PUSH1 0xFF AND SWAP1 SSTORE SWAP2 PUSH1 0x20 ADD SWAP2 SWAP1 PUSH1 0x1 ADD SWAP1 PUSH3 0x287 JUMP JUMPDEST JUMPDEST POP SWAP1 POP PUSH3 0x2B9 SWAP2 SWAP1 PUSH3 0x2BD JUMP JUMPDEST POP SWAP1 JUMP JUMPDEST JUMPDEST DUP1 DUP3 GT ISZERO PUSH3 0x2D8 JUMPI PUSH1 0x0 DUP2 PUSH1 0x0 SWAP1 SSTORE POP PUSH1 0x1 ADD PUSH3 0x2BE JUMP JUMPDEST POP SWAP1 JUMP JUMPDEST PUSH1 0x0 PUSH3 0x2F3 PUSH3 0x2ED DUP5 PUSH3 0x3D4 JUMP JUMPDEST PUSH3 0x3AB JUMP JUMPDEST SWAP1 POP DUP3 DUP2 MSTORE PUSH1 0x20 DUP2 ADD DUP5 DUP5 DUP5 ADD GT ISZERO PUSH3 0x312 JUMPI PUSH3 0x311 PUSH3 0x50F JUMP JUMPDEST JUMPDEST PUSH3 0x31F DUP5 DUP3 DUP6 PUSH3 0x40A JUMP JUMPDEST POP SWAP4 SWAP3 POP POP POP JUMP JUMPDEST PUSH1 0x0 DUP3 PUSH1 0x1F DUP4 ADD SLT PUSH3 0x33F JUMPI PUSH3 0x33E PUSH3 0x50A JUMP JUMPDEST JUMPDEST DUP2 MLOAD PUSH3 0x351 DUP5 DUP3 PUSH1 0x20 DUP7 ADD PUSH3 0x2DC JUMP JUMPDEST SWAP2 POP POP SWAP3 SWAP2 POP POP JUMP JUMPDEST PUSH1 0x0 PUSH1 0x20 DUP3 DUP5 SUB SLT ISZERO PUSH3 0x373 JUMPI PUSH3 0x372 PUSH3 0x519 JUMP JUMPDEST JUMPDEST PUSH1 0x0 DUP3 ADD MLOAD PUSH8 0xFFFFFFFFFFFFFFFF DUP2 GT ISZERO PUSH3 0x394 JUMPI PUSH3 0x393 PUSH3 0x514 JUMP JUMPDEST JUMPDEST PUSH3 0x3A2 DUP5 DUP3 DUP6 ADD PUSH3 0x327 JUMP JUMPDEST SWAP2 POP POP SWAP3 SWAP2 POP POP JUMP JUMPDEST PUSH1 0x0 PUSH3 0x3B7 PUSH3 0x3CA JUMP JUMPDEST SWAP1 POP PUSH3 0x3C5 DUP3 DUP3 PUSH3 0x476 JUMP JUMPDEST SWAP2 SWAP1 POP JUMP JUMPDEST PUSH1 0x0 PUSH1 0x40 MLOAD SWAP1 POP SWAP1 JUMP JUMPDEST PUSH1 0x0 PUSH8 0xFFFFFFFFFFFFFFFF DUP3 GT ISZERO PUSH3 0x3F2 JUMPI PUSH3 0x3F1 PUSH3 0x4DB JUMP JUMPDEST JUMPDEST PUSH3 0x3FD DUP3 PUSH3 0x51E JUMP JUMPDEST SWAP1 POP PUSH1 0x20 DUP2 ADD SWAP1 POP SWAP2 SWAP1 POP JUMP JUMPDEST PUSH1 0x0 JUMPDEST DUP4 DUP2 LT ISZERO PUSH3 0x42A JUMPI DUP1 DUP3 ADD MLOAD DUP2 DUP5 ADD MSTORE PUSH1 0x20 DUP2 ADD SWAP1 POP PUSH3 0x40D JUMP JUMPDEST DUP4 DUP2 GT ISZERO PUSH3 0x43A JUMPI PUSH1 0x0 DUP5 DUP5 ADD MSTORE JUMPDEST POP POP POP POP JUMP JUMPDEST PUSH1 0x0 PUSH1 0x2 DUP3 DIV SWAP1 POP PUSH1 0x1 DUP3 AND DUP1 PUSH3 0x459 JUMPI PUSH1 0x7F DUP3 AND SWAP2 POP JUMPDEST PUSH1 0x20 DUP3 LT DUP2 EQ ISZERO PUSH3 0x470 JUMPI PUSH3 0x46F PUSH3 0x4AC JUMP JUMPDEST JUMPDEST POP SWAP2 SWAP1 POP JUMP JUMPDEST PUSH3 0x481 DUP3 PUSH3 0x51E JUMP JUMPDEST DUP2 ADD DUP2 DUP2 LT PUSH8 0xFFFFFFFFFFFFFFFF DUP3 GT OR ISZERO PUSH3 0x4A3 JUMPI PUSH3 0x4A2 PUSH3 0x4DB JUMP JUMPDEST JUMPDEST DUP1 PUSH1 0x40 MSTORE POP POP POP JUMP JUMPDEST PUSH32 0x4E487B7100000000000000000000000000000000000000000000000000000000 PUSH1 0x0 MSTORE PUSH1 0x22 PUSH1 0x4 MSTORE PUSH1 0x24 PUSH1 0x0 REVERT JUMPDEST PUSH32 0x4E487B7100000000000000000000000000000000000000000000000000000000 PUSH1 0x0 MSTORE PUSH1 0x41 PUSH1 0x4 MSTORE PUSH1 0x24 PUSH1 0x0 REVERT JUMPDEST PUSH1 0x0 DUP1 REVERT JUMPDEST PUSH1 0x0 DUP1 REVERT JUMPDEST PUSH1 0x0 DUP1 REVERT JUMPDEST PUSH1 0x0 DUP1 REVERT JUMPDEST PUSH1 0x0 PUSH1 0x1F NOT PUSH1 0x1F DUP4 ADD AND SWAP1 POP SWAP2 SWAP1 POP JUMP JUMPDEST PUSH2 0x12D1 DUP1 PUSH3 0x53F PUSH1 0x0 CODECOPY PUSH1 0x0 RETURN INVALID PUSH1 0x80 PUSH1 0x40 MSTORE CALLVALUE DUP1 ISZERO PUSH2 0x10 JUMPI PUSH1 0x0 DUP1 REVERT JUMPDEST POP PUSH1 0x4 CALLDATASIZE LT PUSH2 0x1DA JUMPI PUSH1 0x0 CALLDATALOAD PUSH1 0xE0 SHR DUP1 PUSH4 0x99D39D93 GT PUSH2 0x104 JUMPI DUP1 PUSH4 0xDD8842A4 GT PUSH2 0xA2 JUMPI DUP1 PUSH4 0xF7A3BDF7 GT PUSH2 0x71 JUMPI DUP1 PUSH4 0xF7A3BDF7 EQ PUSH2 0x47B JUMPI DUP1 PUSH4 0xFC0E6008 EQ PUSH2 0x485 JUMPI DUP1 PUSH4 0xFE89EADA EQ PUSH2 0x48F JUMPI DUP1 PUSH4 0xFFBB24D4 EQ PUSH2 0x4BF JUMPI PUSH2 0x1DA JUMP JUMPDEST DUP1 PUSH4 0xDD8842A4 EQ PUSH2 0x42B JUMPI DUP1 PUSH4 0xE7C898EF EQ PUSH2 0x435 JUMPI DUP1 PUSH4 0xE9B61909 EQ PUSH2 0x43F JUMPI DUP1 PUSH4 0xEC025698 EQ PUSH2 0x45D JUMPI PUSH2 0x1DA JUMP JUMPDEST DUP1 PUSH4 0xC0D44075 GT PUSH2 0xDE JUMPI DUP1 PUSH4 0xC0D44075 EQ PUSH2 0x3B9 JUMPI DUP1 PUSH4 0xC47F0027 EQ PUSH2 0x3C3 JUMPI DUP1 PUSH4 0xCC3E57D9 EQ PUSH2 0x3DF JUMPI DUP1 PUSH4 0xD22D9006 EQ PUSH2 0x40F JUMPI PUSH2 0x1DA JUMP JUMPDEST DUP1 PUSH4 0x99D39D93 EQ PUSH2 0x375 JUMPI DUP1 PUSH4 0x9A9BDCA7 EQ PUSH2 0x37F JUMPI DUP1 PUSH4 0xA521BFD1 EQ PUSH2 0x3AF JUMPI PUSH2 0x1DA JUMP JUMPDEST DUP1 PUSH4 0x457676EE GT PUSH2 0x17C JUMPI DUP1 PUSH4 0x7E6EAB0E GT PUSH2 0x14B JUMPI DUP1 PUSH4 0x7E6EAB0E EQ PUSH2 0x2FD JUMPI DUP1 PUSH4 0x967E6E65 EQ PUSH2 0x31B JUMPI DUP1 PUSH4 0x975057E7 EQ PUSH2 0x339 JUMPI DUP1 PUSH4 0x993A04B7 EQ PUSH2 0x357 JUMPI PUSH2 0x1DA JUMP JUMPDEST DUP1 PUSH4 0x457676EE EQ PUSH2 0x29B JUMPI DUP1 PUSH4 0x4A8E5F59 EQ PUSH2 0x2A5 JUMPI DUP1 PUSH4 0x5D4A10FA EQ PUSH2 0x2C3 JUMPI DUP1 PUSH4 0x793816EC EQ PUSH2 0x2DF JUMPI PUSH2 0x1DA JUMP JUMPDEST DUP1 PUSH4 0x17D7DE7C GT PUSH2 0x1B8 JUMPI DUP1 PUSH4 0x17D7DE7C EQ PUSH2 0x239 JUMPI DUP1 PUSH4 0x195F0F0E EQ PUSH2 0x257 JUMPI DUP1 PUSH4 0x302C3CFA EQ PUSH2 0x273 JUMPI DUP1 PUSH4 0x3F3108F7 EQ PUSH2 0x291 JUMPI PUSH2 0x1DA JUMP JUMPDEST DUP1 PUSH4 0x6661ABD EQ PUSH2 0x1DF JUMPI DUP1 PUSH4 0x6FDDE03 EQ PUSH2 0x1FD JUMPI DUP1 PUSH4 0xADD6EF2 EQ PUSH2 0x21B JUMPI JUMPDEST PUSH1 0x0 DUP1 REVERT JUMPDEST PUSH2 0x1E7 PUSH2 0x4EF JUMP JUMPDEST PUSH1 0x40 MLOAD PUSH2 0x1F4 SWAP2 SWAP1 PUSH2 0xEBA JUMP JUMPDEST PUSH1 0x40 MLOAD DUP1 SWAP2 SUB SWAP1 RETURN JUMPDEST PUSH2 0x205 PUSH2 0x4F5 JUMP JUMPDEST PUSH1 0x40 MLOAD PUSH2 0x212 SWAP2 SWAP1 PUSH2 0xE7D JUMP JUMPDEST PUSH1 0x40 MLOAD DUP1 SWAP2 SUB SWAP1 RETURN JUMPDEST PUSH2 0x223 PUSH2 0x583 JUMP JUMPDEST PUSH1 0x40 MLOAD PUSH2 0x230 SWAP2 SWAP1 PUSH2 0xE0A JUMP JUMPDEST PUSH1 0x40 MLOAD DUP1 SWAP2 SUB SWAP1 RETURN JUMPDEST PUSH2 0x241 PUSH2 0x596 JUMP JUMPDEST PUSH1 0x40 MLOAD PUSH2 0x24E SWAP2 SWAP1 PUSH2 0xE7D JUMP JUMPDEST PUSH1 0x40 MLOAD DUP1 SWAP2 SUB SWAP1 RETURN JUMPDEST PUSH2 0x271 PUSH1 0x4 DUP1 CALLDATASIZE SUB DUP2 ADD SWAP1 PUSH2 0x26C SWAP2 SWAP1 PUSH2 0xCB6 JUMP JUMPDEST PUSH2 0x628 JUMP JUMPDEST STOP JUMPDEST PUSH2 0x27B PUSH2 0x654 JUMP JUMPDEST PUSH1 0x40 MLOAD PUSH2 0x288 SWAP2 SWAP1 PUSH2 0xEBA JUMP JUMPDEST PUSH1 0x40 MLOAD DUP1 SWAP2 SUB SWAP1 RETURN JUMPDEST PUSH2 0x299 PUSH2 0x661 JUMP JUMPDEST STOP JUMPDEST PUSH2 0x2A3 PUSH2 0x67D JUMP JUMPDEST STOP JUMPDEST PUSH2 0x2AD PUSH2 0x698 JUMP JUMPDEST PUSH1 0x40 MLOAD PUSH2 0x2BA SWAP2 SWAP1 PUSH2 0xE62 JUMP JUMPDEST PUSH1 0x40 MLOAD DUP1 SWAP2 SUB SWAP1 RETURN JUMPDEST PUSH2 0x2DD PUSH1 0x4 DUP1 CALLDATASIZE SUB DUP2 ADD SWAP1 PUSH2 0x2D8 SWAP2 SWAP1 PUSH2 0xCB6 JUMP JUMPDEST PUSH2 0x6A9 JUMP JUMPDEST STOP JUMPDEST PUSH2 0x2E7 PUSH2 0x6B3 JUMP JUMPDEST PUSH1 0x40 MLOAD PUSH2 0x2F4 SWAP2 SWAP1 PUSH2 0xE9F JUMP JUMPDEST PUSH1 0x40 MLOAD DUP1 SWAP2 SUB SWAP1 RETURN JUMPDEST PUSH2 0x305 PUSH2 0x6C7 JUMP JUMPDEST PUSH1 0x40 MLOAD PUSH2 0x312 SWAP2 SWAP1 PUSH2 0xE40 JUMP JUMPDEST PUSH1 0x40 MLOAD DUP1 SWAP2 SUB SWAP1 RETURN JUMPDEST PUSH2 0x323 PUSH2 0x755 JUMP JUMPDEST PUSH1 0x40 MLOAD PUSH2 0x330 SWAP2 SWAP1 PUSH2 0xEBA JUMP JUMPDEST PUSH1 0x40 MLOAD DUP1 SWAP2 SUB SWAP1 RETURN JUMPDEST PUSH2 0x341 PUSH2 0x75F JUMP JUMPDEST PUSH1 0x40 MLOAD PUSH2 0x34E SWAP2 SWAP1 PUSH2 0xEBA JUMP JUMPDEST PUSH1 0x40 MLOAD DUP1 SWAP2 SUB SWAP1 RETURN JUMPDEST PUSH2 0x35F PUSH2 0x76D JUMP JUMPDEST PUSH1 0x40 MLOAD PUSH2 0x36C SWAP2 SWAP1 PUSH2 0xEBA JUMP JUMPDEST PUSH1 0x40 MLOAD DUP1 SWAP2 SUB SWAP1 RETURN JUMPDEST PUSH2 0x37D PUSH2 0x777 JUMP JUMPDEST STOP JUMPDEST PUSH2 0x399 PUSH1 0x4 DUP1 CALLDATASIZE SUB DUP2 ADD SWAP1 PUSH2 0x394 SWAP2 SWAP1 PUSH2 0xCB6 JUMP JUMPDEST PUSH2 0x83B JUMP JUMPDEST PUSH1 0x40 MLOAD PUSH2 0x3A6 SWAP2 SWAP1 PUSH2 0xEBA JUMP JUMPDEST PUSH1 0x40 MLOAD DUP1 SWAP2 SUB SWAP1 RETURN JUMPDEST PUSH2 0x3B7 PUSH2 0x85F JUMP JUMPDEST STOP JUMPDEST PUSH2 0x3C1 PUSH2 0x889 JUMP JUMPDEST STOP JUMPDEST PUSH2 0x3DD PUSH1 0x4 DUP1 CALLDATASIZE SUB DUP2 ADD SWAP1 PUSH2 0x3D8 SWAP2 SWAP1 PUSH2 0xC6D JUMP JUMPDEST PUSH2 0x8DA JUMP JUMPDEST STOP JUMPDEST PUSH2 0x3F9 PUSH1 0x4 DUP1 CALLDATASIZE SUB DUP2 ADD SWAP1 PUSH2 0x3F4 SWAP2 SWAP1 PUSH2 0xCB6 JUMP JUMPDEST PUSH2 0x8F4 JUMP JUMPDEST PUSH1 0x40 MLOAD PUSH2 0x406 SWAP2 SWAP1 PUSH2 0xEBA JUMP JUMPDEST PUSH1 0x40 MLOAD DUP1 SWAP2 SUB SWAP1 RETURN JUMPDEST PUSH2 0x429 PUSH1 0x4 DUP1 CALLDATASIZE SUB DUP2 ADD SWAP1 PUSH2 0x424 SWAP2 SWAP1 PUSH2 0xCE3 JUMP JUMPDEST PUSH2 0x90F JUMP JUMPDEST STOP JUMPDEST PUSH2 0x433 PUSH2 0x930 JUMP JUMPDEST STOP JUMPDEST PUSH2 0x43D PUSH2 0x951 JUMP JUMPDEST STOP JUMPDEST PUSH2 0x447 PUSH2 0x9A8 JUMP JUMPDEST PUSH1 0x40 MLOAD PUSH2 0x454 SWAP2 SWAP1 PUSH2 0xE25 JUMP JUMPDEST PUSH1 0x40 MLOAD DUP1 SWAP2 SUB SWAP1 RETURN JUMPDEST PUSH2 0x465 PUSH2 0x9BB JUMP JUMPDEST PUSH1 0x40 MLOAD PUSH2 0x472 SWAP2 SWAP1 PUSH2 0xEBA JUMP JUMPDEST PUSH1 0x40 MLOAD DUP1 SWAP2 SUB SWAP1 RETURN JUMPDEST PUSH2 0x483 PUSH2 0x9C4 JUMP JUMPDEST STOP JUMPDEST PUSH2 0x48D PUSH2 0xA3F JUMP JUMPDEST STOP JUMPDEST PUSH2 0x4A9 PUSH1 0x4 DUP1 CALLDATASIZE SUB DUP2 ADD SWAP1 PUSH2 0x4A4 SWAP2 SWAP1 PUSH2 0xCB6 JUMP JUMPDEST PUSH2 0xAAA JUMP JUMPDEST PUSH1 0x40 MLOAD PUSH2 0x4B6 SWAP2 SWAP1 PUSH2 0xDEF JUMP JUMPDEST PUSH1 0x40 MLOAD DUP1 SWAP2 SUB SWAP1 RETURN JUMPDEST PUSH2 0x4D9 PUSH1 0x4 DUP1 CALLDATASIZE SUB DUP2 ADD SWAP1 PUSH2 0x4D4 SWAP2 SWAP1 PUSH2 0xCB6 JUMP JUMPDEST PUSH2 0xB15 JUMP JUMPDEST PUSH1 0x40 MLOAD PUSH2 0x4E6 SWAP2 SWAP1 PUSH2 0xEBA JUMP JUMPDEST PUSH1 0x40 MLOAD DUP1 SWAP2 SUB SWAP1 RETURN JUMPDEST PUSH1 0xD SLOAD DUP2 JUMP JUMPDEST PUSH1 0x0 DUP1 SLOAD PUSH2 0x502 SWAP1 PUSH2 0x10B1 JUMP JUMPDEST DUP1 PUSH1 0x1F ADD PUSH1 0x20 DUP1 SWAP2 DIV MUL PUSH1 0x20 ADD PUSH1 0x40 MLOAD SWAP1 DUP2 ADD PUSH1 0x40 MSTORE DUP1 SWAP3 SWAP2 SWAP1 DUP2 DUP2 MSTORE PUSH1 0x20 ADD DUP3 DUP1 SLOAD PUSH2 0x52E SWAP1 PUSH2 0x10B1 JUMP JUMPDEST DUP1 ISZERO PUSH2 0x57B JUMPI DUP1 PUSH1 0x1F LT PUSH2 0x550 JUMPI PUSH2 0x100 DUP1 DUP4 SLOAD DIV MUL DUP4 MSTORE SWAP2 PUSH1 0x20 ADD SWAP2 PUSH2 0x57B JUMP JUMPDEST DUP3 ADD SWAP2 SWAP1 PUSH1 0x0 MSTORE PUSH1 0x20 PUSH1 0x0 KECCAK256 SWAP1 JUMPDEST DUP2 SLOAD DUP2 MSTORE SWAP1 PUSH1 0x1 ADD SWAP1 PUSH1 0x20 ADD DUP1 DUP4 GT PUSH2 0x55E JUMPI DUP3 SWAP1 SUB PUSH1 0x1F AND DUP3 ADD SWAP2 JUMPDEST POP POP POP POP POP DUP2 JUMP JUMPDEST PUSH1 0x8 PUSH1 0x0 SWAP1 SLOAD SWAP1 PUSH2 0x100 EXP SWAP1 DIV PUSH1 0xF0 SHL DUP2 JUMP JUMPDEST PUSH1 0x60 PUSH1 0x0 DUP1 SLOAD PUSH2 0x5A5 SWAP1 PUSH2 0x10B1 JUMP JUMPDEST DUP1 PUSH1 0x1F ADD PUSH1 0x20 DUP1 SWAP2 DIV MUL PUSH1 0x20 ADD PUSH1 0x40 MLOAD SWAP1 DUP2 ADD PUSH1 0x40 MSTORE DUP1 SWAP3 SWAP2 SWAP1 DUP2 DUP2 MSTORE PUSH1 0x20 ADD DUP3 DUP1 SLOAD PUSH2 0x5D1 SWAP1 PUSH2 0x10B1 JUMP JUMPDEST DUP1 ISZERO PUSH2 0x61E JUMPI DUP1 PUSH1 0x1F LT PUSH2 0x5F3 JUMPI PUSH2 0x100 DUP1 DUP4 SLOAD DIV MUL DUP4 MSTORE SWAP2 PUSH1 0x20 ADD SWAP2 PUSH2 0x61E JUMP JUMPDEST DUP3 ADD SWAP2 SWAP1 PUSH1 0x0 MSTORE PUSH1 0x20 PUSH1 0x0 KECCAK256 SWAP1 JUMPDEST DUP2 SLOAD DUP2 MSTORE SWAP1 PUSH1 0x1 ADD SWAP1 PUSH1 0x20 ADD DUP1 DUP4 GT PUSH2 0x601 JUMPI DUP3 SWAP1 SUB PUSH1 0x1F AND DUP3 ADD SWAP2 JUMPDEST POP POP POP POP POP SWAP1 POP SWAP1 JUMP JUMPDEST PUSH1 0x7 DUP2 SWAP1 DUP1 PUSH1 0x1 DUP2 SLOAD ADD DUP1 DUP3 SSTORE DUP1 SWAP2 POP POP PUSH1 0x1 SWAP1 SUB SWAP1 PUSH1 0x0 MSTORE PUSH1 0x20 PUSH1 0x0 KECCAK256 ADD PUSH1 0x0 SWAP1 SWAP2 SWAP1 SWAP2 SWAP1 SWAP2 POP SSTORE POP JUMP JUMPDEST PUSH1 0x0 PUSH1 0x7 DUP1 SLOAD SWAP1 POP SWAP1 POP SWAP1 JUMP JUMPDEST PUSH1 0x5 PUSH1 0x1 PUSH1 0x0 DUP3 DUP3 SLOAD PUSH2 0x674 SWAP2 SWAP1 PUSH2 0xF63 JUMP JUMPDEST SWAP3 POP POP DUP2 SWAP1 SSTORE POP JUMP JUMPDEST PUSH1 0x1 DUP1 PUSH1 0x0 DUP3 DUP3 SLOAD PUSH2 0x68F SWAP2 SWAP1 PUSH2 0xF63 JUMP JUMPDEST SWAP3 POP POP DUP2 SWAP1 SSTORE POP JUMP JUMPDEST PUSH1 0x2 DUP1 SLOAD SWAP1 PUSH2 0x100 EXP SWAP1 DIV PUSH1 0x0 SIGNEXTEND DUP2 JUMP JUMPDEST DUP1 PUSH1 0x1 DUP2 SWAP1 SSTORE POP POP JUMP JUMPDEST PUSH1 0x2 PUSH1 0x0 SWAP1 SLOAD SWAP1 PUSH2 0x100 EXP SWAP1 DIV PUSH2 0xFFFF AND DUP2 JUMP JUMPDEST PUSH1 0x9 DUP1 SLOAD PUSH2 0x6D4 SWAP1 PUSH2 0x10B1 JUMP JUMPDEST DUP1 PUSH1 0x1F ADD PUSH1 0x20 DUP1 SWAP2 DIV MUL PUSH1 0x20 ADD PUSH1 0x40 MLOAD SWAP1 DUP2 ADD PUSH1 0x40 MSTORE DUP1 SWAP3 SWAP2 SWAP1 DUP2 DUP2 MSTORE PUSH1 0x20 ADD DUP3 DUP1 SLOAD PUSH2 0x700 SWAP1 PUSH2 0x10B1 JUMP JUMPDEST DUP1 ISZERO PUSH2 0x74D JUMPI DUP1 PUSH1 0x1F LT PUSH2 0x722 JUMPI PUSH2 0x100 DUP1 DUP4 SLOAD DIV MUL DUP4 MSTORE SWAP2 PUSH1 0x20 ADD SWAP2 PUSH2 0x74D JUMP JUMPDEST DUP3 ADD SWAP2 SWAP1 PUSH1 0x0 MSTORE PUSH1 0x20 PUSH1 0x0 KECCAK256 SWAP1 JUMPDEST DUP2 SLOAD DUP2 MSTORE SWAP1 PUSH1 0x1 ADD SWAP1 PUSH1 0x20 ADD DUP1 DUP4 GT PUSH2 0x730 JUMPI DUP3 SWAP1 SUB PUSH1 0x1F AND DUP3 ADD SWAP2 JUMPDEST POP POP POP POP POP DUP2 JUMP JUMPDEST PUSH1 0x0 PUSH1 0x1 SLOAD SWAP1 POP SWAP1 JUMP JUMPDEST PUSH1 0x0 DUP1 PUSH1 0x2A SWAP1 POP DUP1 SWAP2 POP POP SWAP1 JUMP JUMPDEST PUSH1 0x0 PUSH1 0x1 SLOAD SWAP1 POP SWAP1 JUMP JUMPDEST PUSH1 0x9 DUP1 DUP1 SLOAD DUP1 PUSH2 0x786 SWAP1 PUSH2 0x10B1 JUMP JUMPDEST DUP1 PUSH1 0x1F DUP2 EQ PUSH2 0x794 JUMPI PUSH2 0x7AA JUMP JUMPDEST DUP4 PUSH1 0x0 MSTORE PUSH1 0x20 PUSH1 0x0 KECCAK256 PUSH1 0xFF NOT DUP5 AND DUP2 SSTORE PUSH1 0x3F SWAP4 POP POP JUMPDEST POP PUSH1 0x2 DUP3 ADD DUP4 SSTORE PUSH1 0x1 DUP2 ADD SWAP3 POP POP POP PUSH1 0x1 SWAP1 SUB DUP2 SLOAD PUSH1 0x1 AND ISZERO PUSH2 0x7DC JUMPI SWAP1 PUSH1 0x0 MSTORE PUSH1 0x20 PUSH1 0x0 KECCAK256 SWAP1 PUSH1 0x20 SWAP2 DUP3 DUP3 DIV ADD SWAP2 SWAP1 MOD JUMPDEST PUSH32 0x6200000000000000000000000000000000000000000000000000000000000000 SWAP1 SWAP2 SWAP1 SWAP2 PUSH1 0x1F SUB PUSH2 0x100 EXP DUP2 SLOAD DUP2 PUSH1 0xFF MUL NOT AND SWAP1 PUSH32 0x100000000000000000000000000000000000000000000000000000000000000 DUP5 DIV MUL OR SWAP1 SSTORE POP JUMP JUMPDEST PUSH1 0x7 DUP2 DUP2 SLOAD DUP2 LT PUSH2 0x84B JUMPI PUSH1 0x0 DUP1 REVERT JUMPDEST SWAP1 PUSH1 0x0 MSTORE PUSH1 0x20 PUSH1 0x0 KECCAK256 ADD PUSH1 0x0 SWAP2 POP SWAP1 POP SLOAD DUP2 JUMP JUMPDEST PUSH1 0x7 DUP1 SLOAD DUP1 PUSH2 0x871 JUMPI PUSH2 0x870 PUSH2 0x11BB JUMP JUMPDEST JUMPDEST PUSH1 0x1 SWAP1 SUB DUP2 DUP2 SWAP1 PUSH1 0x0 MSTORE PUSH1 0x20 PUSH1 0x0 KECCAK256 ADD PUSH1 0x0 SWAP1 SSTORE SWAP1 SSTORE JUMP JUMPDEST JUMPDEST PUSH1 0x1 PUSH1 0xD SLOAD PUSH2 0x899 SWAP2 SWAP1 PUSH2 0xF63 JUMP JUMPDEST PUSH1 0xA PUSH1 0xD SLOAD PUSH1 0x3 DUP2 LT PUSH2 0x8AF JUMPI PUSH2 0x8AE PUSH2 0x11EA JUMP JUMPDEST JUMPDEST ADD DUP2 SWAP1 SSTORE POP PUSH1 0x1 PUSH1 0xD PUSH1 0x0 DUP3 DUP3 SLOAD PUSH2 0x8C7 SWAP2 SWAP1 PUSH2 0xF63 JUMP JUMPDEST SWAP3 POP POP DUP2 SWAP1 SSTORE POP PUSH1 0x3 PUSH1 0xD SLOAD LT PUSH2 0x88A JUMPI JUMP JUMPDEST DUP1 PUSH1 0x0 SWAP1 DUP1 MLOAD SWAP1 PUSH1 0x20 ADD SWAP1 PUSH2 0x8F0 SWAP3 SWAP2 SWAP1 PUSH2 0xB30 JUMP JUMPDEST POP POP JUMP JUMPDEST PUSH1 0xA DUP2 PUSH1 0x3 DUP2 LT PUSH2 0x904 JUMPI PUSH1 0x0 DUP1 REVERT JUMPDEST ADD PUSH1 0x0 SWAP2 POP SWAP1 POP SLOAD DUP2 JUMP JUMPDEST DUP1 PUSH1 0x3 DUP4 PUSH1 0xFF AND PUSH1 0x4 DUP2 LT PUSH2 0x927 JUMPI PUSH2 0x926 PUSH2 0x11EA JUMP JUMPDEST JUMPDEST ADD DUP2 SWAP1 SSTORE POP POP POP JUMP JUMPDEST PUSH2 0x1C8 PUSH1 0x2 PUSH1 0x0 PUSH2 0x100 EXP DUP2 SLOAD DUP2 PUSH2 0xFFFF MUL NOT AND SWAP1 DUP4 PUSH2 0xFFFF AND MUL OR SWAP1 SSTORE POP JUMP JUMPDEST JUMPDEST PUSH1 0x3 PUSH1 0xD SLOAD LT ISZERO PUSH2 0x9A6 JUMPI PUSH1 0x1 PUSH1 0xD SLOAD PUSH2 0x96C SWAP2 SWAP1 PUSH2 0xF63 JUMP JUMPDEST PUSH1 0xA PUSH1 0xD SLOAD PUSH1 0x3 DUP2 LT PUSH2 0x982 JUMPI PUSH2 0x981 PUSH2 0x11EA JUMP JUMPDEST JUMPDEST ADD DUP2 SWAP1 SSTORE POP PUSH1 0x1 PUSH1 0xD PUSH1 0x0 DUP3 DUP3 SLOAD PUSH2 0x99A SWAP2 SWAP1 PUSH2 0xF63 JUMP JUMPDEST SWAP3 POP POP DUP2 SWAP1 SSTORE POP PUSH2 0x952 JUMP JUMPDEST JUMP JUMPDEST PUSH1 0x8 PUSH1 0x2 SWAP1 SLOAD SWAP1 PUSH2 0x100 EXP SWAP1 DIV PUSH1 0xE8 SHL DUP2 JUMP JUMPDEST PUSH1 0x0 PUSH1 0x4 SWAP1 POP SWAP1 JUMP JUMPDEST PUSH32 0x6366000000000000000000000000000000000000000000000000000000000000 PUSH1 0x8 PUSH1 0x0 PUSH2 0x100 EXP DUP2 SLOAD DUP2 PUSH2 0xFFFF MUL NOT AND SWAP1 DUP4 PUSH1 0xF0 SHR MUL OR SWAP1 SSTORE POP PUSH32 0x6162640000000000000000000000000000000000000000000000000000000000 PUSH1 0x8 PUSH1 0x2 PUSH2 0x100 EXP DUP2 SLOAD DUP2 PUSH3 0xFFFFFF MUL NOT AND SWAP1 DUP4 PUSH1 0xE8 SHR MUL OR SWAP1 SSTORE POP JUMP JUMPDEST PUSH1 0x0 PUSH1 0xD SLOAD SWAP1 POP JUMPDEST PUSH1 0x3 DUP2 LT ISZERO PUSH2 0xAA7 JUMPI PUSH1 0x1 PUSH1 0xD SLOAD PUSH2 0xA5F SWAP2 SWAP1 PUSH2 0xF63 JUMP JUMPDEST PUSH1 0xA PUSH1 0xD SLOAD PUSH1 0x3 DUP2 LT PUSH2 0xA75 JUMPI PUSH2 0xA74 PUSH2 0x11EA JUMP JUMPDEST JUMPDEST ADD DUP2 SWAP1 SSTORE POP PUSH1 0x1 PUSH1 0xD PUSH1 0x0 DUP3 DUP3 SLOAD PUSH2 0xA8D SWAP2 SWAP1 PUSH2 0xF63 JUMP JUMPDEST SWAP3 POP POP DUP2 SWAP1 SSTORE POP DUP1 DUP1 PUSH2 0xA9F SWAP1 PUSH2 0x1114 JUMP JUMPDEST SWAP2 POP POP PUSH2 0xA47 JUMP JUMPDEST POP JUMP JUMPDEST PUSH1 0x0 PUSH1 0x9 DUP3 DUP2 SLOAD PUSH2 0xABA SWAP1 PUSH2 0x10B1 JUMP JUMPDEST DUP2 LT PUSH2 0xAC9 JUMPI PUSH2 0xAC8 PUSH2 0x11EA JUMP JUMPDEST JUMPDEST DUP2 SLOAD PUSH1 0x1 AND ISZERO PUSH2 0xAE8 JUMPI SWAP1 PUSH1 0x0 MSTORE PUSH1 0x20 PUSH1 0x0 KECCAK256 SWAP1 PUSH1 0x20 SWAP2 DUP3 DUP3 DIV ADD SWAP2 SWAP1 MOD JUMPDEST SWAP1 SLOAD SWAP1 BYTE PUSH32 0x100000000000000000000000000000000000000000000000000000000000000 MUL SWAP1 POP SWAP2 SWAP1 POP JUMP JUMPDEST PUSH1 0x3 DUP2 PUSH1 0x4 DUP2 LT PUSH2 0xB25 JUMPI PUSH1 0x0 DUP1 REVERT JUMPDEST ADD PUSH1 0x0 SWAP2 POP SWAP1 POP SLOAD DUP2 JUMP JUMPDEST DUP3 DUP1 SLOAD PUSH2 0xB3C SWAP1 PUSH2 0x10B1 JUMP JUMPDEST SWAP1 PUSH1 0x0 MSTORE PUSH1 0x20 PUSH1 0x0 KECCAK256 SWAP1 PUSH1 0x1F ADD PUSH1 0x20 SWAP1 DIV DUP2 ADD SWAP3 DUP3 PUSH2 0xB5E JUMPI PUSH1 0x0 DUP6 SSTORE PUSH2 0xBA5 JUMP JUMPDEST DUP3 PUSH1 0x1F LT PUSH2 0xB77 JUMPI DUP1 MLOAD PUSH1 0xFF NOT AND DUP4 DUP1 ADD OR DUP6 SSTORE PUSH2 0xBA5 JUMP JUMPDEST DUP3 DUP1 ADD PUSH1 0x1 ADD DUP6 SSTORE DUP3 ISZERO PUSH2 0xBA5 JUMPI SWAP2 DUP3 ADD JUMPDEST DUP3 DUP2 GT ISZERO PUSH2 0xBA4 JUMPI DUP3 MLOAD DUP3 SSTORE SWAP2 PUSH1 0x20 ADD SWAP2 SWAP1 PUSH1 0x1 ADD SWAP1 PUSH2 0xB89 JUMP JUMPDEST JUMPDEST POP SWAP1 POP PUSH2 0xBB2 SWAP2 SWAP1 PUSH2 0xBB6 JUMP JUMPDEST POP SWAP1 JUMP JUMPDEST JUMPDEST DUP1 DUP3 GT ISZERO PUSH2 0xBCF JUMPI PUSH1 0x0 DUP2 PUSH1 0x0 SWAP1 SSTORE POP PUSH1 0x1 ADD PUSH2 0xBB7 JUMP JUMPDEST POP SWAP1 JUMP JUMPDEST PUSH1 0x0 PUSH2 0xBE6 PUSH2 0xBE1 DUP5 PUSH2 0xEFA JUMP JUMPDEST PUSH2 0xED5 JUMP JUMPDEST SWAP1 POP DUP3 DUP2 MSTORE PUSH1 0x20 DUP2 ADD DUP5 DUP5 DUP5 ADD GT ISZERO PUSH2 0xC02 JUMPI PUSH2 0xC01 PUSH2 0x124D JUMP JUMPDEST JUMPDEST PUSH2 0xC0D DUP5 DUP3 DUP6 PUSH2 0x106F JUMP JUMPDEST POP SWAP4 SWAP3 POP POP POP JUMP JUMPDEST PUSH1 0x0 DUP3 PUSH1 0x1F DUP4 ADD SLT PUSH2 0xC2A JUMPI PUSH2 0xC29 PUSH2 0x1248 JUMP JUMPDEST JUMPDEST DUP2 CALLDATALOAD PUSH2 0xC3A DUP5 DUP3 PUSH1 0x20 DUP7 ADD PUSH2 0xBD3 JUMP JUMPDEST SWAP2 POP POP SWAP3 SWAP2 POP POP JUMP JUMPDEST PUSH1 0x0 DUP2 CALLDATALOAD SWAP1 POP PUSH2 0xC52 DUP2 PUSH2 0x126D JUMP JUMPDEST SWAP3 SWAP2 POP POP JUMP JUMPDEST PUSH1 0x0 DUP2 CALLDATALOAD SWAP1 POP PUSH2 0xC67 DUP2 PUSH2 0x1284 JUMP JUMPDEST SWAP3 SWAP2 POP POP JUMP JUMPDEST PUSH1 0x0 PUSH1 0x20 DUP3 DUP5 SUB SLT ISZERO PUSH2 0xC83 JUMPI PUSH2 0xC82 PUSH2 0x1257 JUMP JUMPDEST JUMPDEST PUSH1 0x0 DUP3 ADD CALLDATALOAD PUSH8 0xFFFFFFFFFFFFFFFF DUP2 GT ISZERO PUSH2 0xCA1 JUMPI PUSH2 0xCA0 PUSH2 0x1252 JUMP JUMPDEST JUMPDEST PUSH2 0xCAD DUP5 DUP3 DUP6 ADD PUSH2 0xC15 JUMP JUMPDEST SWAP2 POP POP SWAP3 SWAP2 POP POP JUMP JUMPDEST PUSH1 0x0 PUSH1 0x20 DUP3 DUP5 SUB SLT ISZERO PUSH2 0xCCC JUMPI PUSH2 0xCCB PUSH2 0x1257 JUMP JUMPDEST JUMPDEST PUSH1 0x0 PUSH2 0xCDA DUP5 DUP3 DUP6 ADD PUSH2 0xC43 JUMP JUMPDEST SWAP2 POP POP SWAP3 SWAP2 POP POP JUMP JUMPDEST PUSH1 0x0 DUP1 PUSH1 0x40 DUP4 DUP6 SUB SLT ISZERO PUSH2 0xCFA JUMPI PUSH2 0xCF9 PUSH2 0x1257 JUMP JUMPDEST JUMPDEST PUSH1 0x0 PUSH2 0xD08 DUP6 DUP3 DUP7 ADD PUSH2 0xC58 JUMP JUMPDEST SWAP3 POP POP PUSH1 0x20 PUSH2 0xD19 DUP6 DUP3 DUP7 ADD PUSH2 0xC43 JUMP JUMPDEST SWAP2 POP POP SWAP3 POP SWAP3 SWAP1 POP JUMP JUMPDEST PUSH2 0xD2C DUP2 PUSH2 0xFB9 JUMP JUMPDEST DUP3 MSTORE POP POP JUMP JUMPDEST PUSH2 0xD3B DUP2 PUSH2 0xFE5 JUMP JUMPDEST DUP3 MSTORE POP POP JUMP JUMPDEST PUSH2 0xD4A DUP2 PUSH2 0x1011 JUMP JUMPDEST DUP3 MSTORE POP POP JUMP JUMPDEST PUSH1 0x0 PUSH2 0xD5B DUP3 PUSH2 0xF2B JUMP JUMPDEST PUSH2 0xD65 DUP2 DUP6 PUSH2 0xF41 JUMP JUMPDEST SWAP4 POP PUSH2 0xD75 DUP2 DUP6 PUSH1 0x20 DUP7 ADD PUSH2 0x107E JUMP JUMPDEST PUSH2 0xD7E DUP2 PUSH2 0x125C JUMP JUMPDEST DUP5 ADD SWAP2 POP POP SWAP3 SWAP2 POP POP JUMP JUMPDEST PUSH2 0xD92 DUP2 PUSH2 0x103D JUMP JUMPDEST DUP3 MSTORE POP POP JUMP JUMPDEST PUSH1 0x0 PUSH2 0xDA3 DUP3 PUSH2 0xF36 JUMP JUMPDEST PUSH2 0xDAD DUP2 DUP6 PUSH2 0xF52 JUMP JUMPDEST SWAP4 POP PUSH2 0xDBD DUP2 DUP6 PUSH1 0x20 DUP7 ADD PUSH2 0x107E JUMP JUMPDEST PUSH2 0xDC6 DUP2 PUSH2 0x125C JUMP JUMPDEST DUP5 ADD SWAP2 POP POP SWAP3 SWAP2 POP POP JUMP JUMPDEST PUSH2 0xDDA DUP2 PUSH2 0x104A JUMP JUMPDEST DUP3 MSTORE POP POP JUMP JUMPDEST PUSH2 0xDE9 DUP2 PUSH2 0x1058 JUMP JUMPDEST DUP3 MSTORE POP POP JUMP JUMPDEST PUSH1 0x0 PUSH1 0x20 DUP3 ADD SWAP1 POP PUSH2 0xE04 PUSH1 0x0 DUP4 ADD DUP5 PUSH2 0xD23 JUMP JUMPDEST SWAP3 SWAP2 POP POP JUMP JUMPDEST PUSH1 0x0 PUSH1 0x20 DUP3 ADD SWAP1 POP PUSH2 0xE1F PUSH1 0x0 DUP4 ADD DUP5 PUSH2 0xD32 JUMP JUMPDEST SWAP3 SWAP2 POP POP JUMP JUMPDEST PUSH1 0x0 PUSH1 0x20 DUP3 ADD SWAP1 POP PUSH2 0xE3A PUSH1 0x0 DUP4 ADD DUP5 PUSH2 0xD41 JUMP JUMPDEST SWAP3 SWAP2 POP POP JUMP JUMPDEST PUSH1 0x0 PUSH1 0x20 DUP3 ADD SWAP1 POP DUP2 DUP2 SUB PUSH1 0x0 DUP4 ADD MSTORE PUSH2 0xE5A DUP2 DUP5 PUSH2 0xD50 JUMP JUMPDEST SWAP1 POP SWAP3 SWAP2 POP POP JUMP JUMPDEST PUSH1 0x0 PUSH1 0x20 DUP3 ADD SWAP1 POP PUSH2 0xE77 PUSH1 0x0 DUP4 ADD DUP5 PUSH2 0xD89 JUMP JUMPDEST SWAP3 SWAP2 POP POP JUMP JUMPDEST PUSH1 0x0 PUSH1 0x20 DUP3 ADD SWAP1 POP DUP2 DUP2 SUB PUSH1 0x0 DUP4 ADD MSTORE PUSH2 0xE97 DUP2 DUP5 PUSH2 0xD98 JUMP JUMPDEST SWAP1 POP SWAP3 SWAP2 POP POP JUMP JUMPDEST PUSH1 0x0 PUSH1 0x20 DUP3 ADD SWAP1 POP PUSH2 0xEB4 PUSH1 0x0 DUP4 ADD DUP5 PUSH2 0xDD1 JUMP JUMPDEST SWAP3 SWAP2 POP POP JUMP JUMPDEST PUSH1 0x0 PUSH1 0x20 DUP3 ADD SWAP1 POP PUSH2 0xECF PUSH1 0x0 DUP4 ADD DUP5 PUSH2 0xDE0 JUMP JUMPDEST SWAP3 SWAP2 POP POP JUMP JUMPDEST PUSH1 0x0 PUSH2 0xEDF PUSH2 0xEF0 JUMP JUMPDEST SWAP1 POP PUSH2 0xEEB DUP3 DUP3 PUSH2 0x10E3 JUMP JUMPDEST SWAP2 SWAP1 POP JUMP JUMPDEST PUSH1 0x0 PUSH1 0x40 MLOAD SWAP1 POP SWAP1 JUMP JUMPDEST PUSH1 0x0 PUSH8 0xFFFFFFFFFFFFFFFF DUP3 GT ISZERO PUSH2 0xF15 JUMPI PUSH2 0xF14 PUSH2 0x1219 JUMP JUMPDEST JUMPDEST PUSH2 0xF1E DUP3 PUSH2 0x125C JUMP JUMPDEST SWAP1 POP PUSH1 0x20 DUP2 ADD SWAP1 POP SWAP2 SWAP1 POP JUMP JUMPDEST PUSH1 0x0 DUP2 MLOAD SWAP1 POP SWAP2 SWAP1 POP JUMP JUMPDEST PUSH1 0x0 DUP2 MLOAD SWAP1 POP SWAP2 SWAP1 POP JUMP JUMPDEST PUSH1 0x0 DUP3 DUP3 MSTORE PUSH1 0x20 DUP3 ADD SWAP1 POP SWAP3 SWAP2 POP POP JUMP JUMPDEST PUSH1 0x0 DUP3 DUP3 MSTORE PUSH1 0x20 DUP3 ADD SWAP1 POP SWAP3 SWAP2 POP POP JUMP JUMPDEST PUSH1 0x0 PUSH2 0xF6E DUP3 PUSH2 0x1058 JUMP JUMPDEST SWAP2 POP PUSH2 0xF79 DUP4 PUSH2 0x1058 JUMP JUMPDEST SWAP3 POP DUP3 PUSH32 0xFFFFFFFFFFFFFFFFFFFFFFFFFFFFFFFFFFFFFFFFFFFFFFFFFFFFFFFFFFFFFFFF SUB DUP3 GT ISZERO PUSH2 0xFAE JUMPI PUSH2 0xFAD PUSH2 0x115D JUMP JUMPDEST JUMPDEST DUP3 DUP3 ADD SWAP1 POP SWAP3 SWAP2 POP POP JUMP JUMPDEST PUSH1 0x0 PUSH32 0xFF00000000000000000000000000000000000000000000000000000000000000 DUP3 AND SWAP1 POP SWAP2 SWAP1 POP JUMP JUMPDEST PUSH1 0x0 PUSH32 0xFFFF000000000000000000000000000000000000000000000000000000000000 DUP3 AND SWAP1 POP SWAP2 SWAP1 POP JUMP JUMPDEST PUSH1 0x0 PUSH32 0xFFFFFF0000000000000000000000000000000000000000000000000000000000 DUP3 AND SWAP1 POP SWAP2 SWAP1 POP JUMP JUMPDEST PUSH1 0x0 DUP2 PUSH1 0x0 SIGNEXTEND SWAP1 POP SWAP2 SWAP1 POP JUMP JUMPDEST PUSH1 0x0 PUSH2 0xFFFF DUP3 AND SWAP1 POP SWAP2 SWAP1 POP JUMP JUMPDEST PUSH1 0x0 DUP2 SWAP1 POP SWAP2 SWAP1 POP JUMP JUMPDEST PUSH1 0x0 PUSH1 0xFF DUP3 AND SWAP1 POP SWAP2 SWAP1 POP JUMP JUMPDEST DUP3 DUP2 DUP4 CALLDATACOPY PUSH1 0x0 DUP4 DUP4 ADD MSTORE POP POP POP JUMP JUMPDEST PUSH1 0x0 JUMPDEST DUP4 DUP2 LT ISZERO PUSH2 0x109C JUMPI DUP1 DUP3 ADD MLOAD DUP2 DUP5 ADD MSTORE PUSH1 0x20 DUP2 ADD SWAP1 POP PUSH2 0x1081 JUMP JUMPDEST DUP4 DUP2 GT ISZERO PUSH2 0x10AB JUMPI PUSH1 0x0 DUP5 DUP5 ADD MSTORE JUMPDEST POP POP POP POP JUMP JUMPDEST PUSH1 0x0 PUSH1 0x2 DUP3 DIV SWAP1 POP PUSH1 0x1 DUP3 AND DUP1 PUSH2 0x10C9 JUMPI PUSH1 0x7F DUP3 AND SWAP2 POP JUMPDEST PUSH1 0x20 DUP3 LT DUP2 EQ ISZERO PUSH2 0x10DD JUMPI PUSH2 0x10DC PUSH2 0x118C JUMP JUMPDEST JUMPDEST POP SWAP2 SWAP1 POP JUMP JUMPDEST PUSH2 0x10EC DUP3 PUSH2 0x125C JUMP JUMPDEST DUP2 ADD DUP2 DUP2 LT PUSH8 0xFFFFFFFFFFFFFFFF DUP3 GT OR ISZERO PUSH2 0x110B JUMPI PUSH2 0x110A PUSH2 0x1219 JUMP JUMPDEST JUMPDEST DUP1 PUSH1 0x40 MSTORE POP POP POP JUMP JUMPDEST PUSH1 0x0 PUSH2 0x111F DUP3 PUSH2 0x1058 JUMP JUMPDEST SWAP2 POP PUSH32 0xFFFFFFFFFFFFFFFFFFFFFFFFFFFFFFFFFFFFFFFFFFFFFFFFFFFFFFFFFFFFFFFF DUP3 EQ ISZERO PUSH2 0x1152 JUMPI PUSH2 0x1151 PUSH2 0x115D JUMP JUMPDEST JUMPDEST PUSH1 0x1 DUP3 ADD SWAP1 POP SWAP2 SWAP1 POP JUMP JUMPDEST PUSH32 0x4E487B7100000000000000000000000000000000000000000000000000000000 PUSH1 0x0 MSTORE PUSH1 0x11 PUSH1 0x4 MSTORE PUSH1 0x24 PUSH1 0x0 REVERT JUMPDEST PUSH32 0x4E487B7100000000000000000000000000000000000000000000000000000000 PUSH1 0x0 MSTORE PUSH1 0x22 PUSH1 0x4 MSTORE PUSH1 0x24 PUSH1 0x0 REVERT JUMPDEST PUSH32 0x4E487B7100000000000000000000000000000000000000000000000000000000 PUSH1 0x0 MSTORE PUSH1 0x31 PUSH1 0x4 MSTORE PUSH1 0x24 PUSH1 0x0 REVERT JUMPDEST PUSH32 0x4E487B7100000000000000000000000000000000000000000000000000000000 PUSH1 0x0 MSTORE PUSH1 0x32 PUSH1 0x4 MSTORE PUSH1 0x24 PUSH1 0x0 REVERT JUMPDEST PUSH32 0x4E487B7100000000000000000000000000000000000000000000000000000000 PUSH1 0x0 MSTORE PUSH1 0x41 PUSH1 0x4 MSTORE PUSH1 0x24 PUSH1 0x0 REVERT JUMPDEST PUSH1 0x0 DUP1 REVERT JUMPDEST PUSH1 0x0 DUP1 REVERT JUMPDEST PUSH1 0x0 DUP1 REVERT JUMPDEST PUSH1 0x0 DUP1 REVERT JUMPDEST PUSH1 0x0 PUSH1 0x1F NOT PUSH1 0x1F DUP4 ADD AND SWAP1 POP SWAP2 SWAP1 POP JUMP JUMPDEST PUSH2 0x1276 DUP2 PUSH2 0x1058 JUMP JUMPDEST DUP2 EQ PUSH2 0x1281 JUMPI PUSH1 0x0 DUP1 REVERT JUMPDEST POP JUMP JUMPDEST PUSH2 0x128D DUP2 PUSH2 0x1062 JUMP JUMPDEST DUP2 EQ PUSH2 0x1298 JUMPI PUSH1 0x0 DUP1 REVERT JUMPDEST POP JUMP INVALID LOG2 PUSH5 0x6970667358 0x22 SLT KECCAK256 EXP PUSH11 0x1F029E228129E9AE43627B 0xBF 0xFB 0xC9 SWAP16 0x21 0xAA 0xA6 0x28 BASEFEE 0xE3 0xDC 0x28 LOG4 MULMOD PUSH7 0x680E9C0264736F PUSH13 0x63430008070033000000000000 "
		},
		"gasEstimates": {
			"creation": {
				"codeDepositCost": "963400",
				"executionCost": "infinite",
				"totalCost": "infinite"
			},
			"external": {
				"b2()": "2562",
				"b3()": "2610",
				"count()": "2476",
				"doWhile()": "infinite",
				"dynamicArray(uint256)": "infinite",
				"dynamicBytesArray()": "infinite",
				"dynamicSetter(uint256)": "22610",
				"forLoop()": "infinite",
				"getAge()": "2504",
				"getDynamicArrayLength()": "2535",
				"getDynamicBytesArray(uint256)": "7278",
				"getName()": "infinite",
				"getStaticArrayLength()": "448",
				"getter()": "2548",
				"myArray(uint256)": "infinite",
				"myIntVar()": "2590",
				"name()": "infinite",
				"popElementFromDynamicArray()": "29535",
				"pushDynamicBytesArray()": "74866",
				"pushElementInDynamicArray(uint256)": "46897",
				"setAge()": "infinite",
				"setArray(uint8,uint256)": "22845",
				"setBytesArrayVar()": "48772",
				"setName(string)": "infinite",
				"setStateVar()": "24456",
				"setter()": "infinite",
				"stateVar()": "2583",
				"staticArray(uint256)": "infinite",
				"store()": "439",
				"whileLoop()": "infinite"
			}
		},
		"methodIdentifiers": {
			"b2()": "0add6ef2",
			"b3()": "e9b61909",
			"count()": "06661abd",
			"doWhile()": "c0d44075",
			"dynamicArray(uint256)": "9a9bdca7",
			"dynamicBytesArray()": "7e6eab0e",
			"dynamicSetter(uint256)": "5d4a10fa",
			"forLoop()": "fc0e6008",
			"getAge()": "967e6e65",
			"getDynamicArrayLength()": "302c3cfa",
			"getDynamicBytesArray(uint256)": "fe89eada",
			"getName()": "17d7de7c",
			"getStaticArrayLength()": "ec025698",
			"getter()": "993a04b7",
			"myArray(uint256)": "cc3e57d9",
			"myIntVar()": "4a8e5f59",
			"name()": "06fdde03",
			"popElementFromDynamicArray()": "a521bfd1",
			"pushDynamicBytesArray()": "99d39d93",
			"pushElementInDynamicArray(uint256)": "195f0f0e",
			"setAge()": "457676ee",
			"setArray(uint8,uint256)": "d22d9006",
			"setBytesArrayVar()": "f7a3bdf7",
			"setName(string)": "c47f0027",
			"setStateVar()": "dd8842a4",
			"setter()": "3f3108f7",
			"stateVar()": "793816ec",
			"staticArray(uint256)": "ffbb24d4",
			"store()": "975057e7",
			"whileLoop()": "e7c898ef"
		}
	},
	"abi": [
		{
			"inputs": [
				{
					"internalType": "string",
					"name": "yourName",
					"type": "string"
				}
			],
			"stateMutability": "nonpayable",
			"type": "constructor"
		},
		{
			"inputs": [],
			"name": "b2",
			"outputs": [
				{
					"internalType": "bytes2",
					"name": "",
					"type": "bytes2"
				}
			],
			"stateMutability": "view",
			"type": "function"
		},
		{
			"inputs": [],
			"name": "b3",
			"outputs": [
				{
					"internalType": "bytes3",
					"name": "",
					"type": "bytes3"
				}
			],
			"stateMutability": "view",
			"type": "function"
		},
		{
			"inputs": [],
			"name": "count",
			"outputs": [
				{
					"internalType": "uint256",
					"name": "",
					"type": "uint256"
				}
			],
			"stateMutability": "view",
			"type": "function"
		},
		{
			"inputs": [],
			"name": "doWhile",
			"outputs": [],
			"stateMutability": "nonpayable",
			"type": "function"
		},
		{
			"inputs": [
				{
					"internalType": "uint256",
					"name": "",
					"type": "uint256"
				}
			],
			"name": "dynamicArray",
			"outputs": [
				{
					"internalType": "uint256",
					"name": "",
					"type": "uint256"
				}
			],
			"stateMutability": "view",
			"type": "function"
		},
		{
			"inputs": [],
			"name": "dynamicBytesArray",
			"outputs": [
				{
					"internalType": "bytes",
					"name": "",
					"type": "bytes"
				}
			],
			"stateMutability": "view",
			"type": "function"
		},
		{
			"inputs": [
				{
					"internalType": "uint256",
					"name": "newAge",
					"type": "uint256"
				}
			],
			"name": "dynamicSetter",
			"outputs": [],
			"stateMutability": "nonpayable",
			"type": "function"
		},
		{
			"inputs": [],
			"name": "forLoop",
			"outputs": [],
			"stateMutability": "nonpayable",
			"type": "function"
		},
		{
			"inputs": [],
			"name": "getAge",
			"outputs": [
				{
					"internalType": "uint256",
					"name": "",
					"type": "uint256"
				}
			],
			"stateMutability": "view",
			"type": "function"
		},
		{
			"inputs": [],
			"name": "getDynamicArrayLength",
			"outputs": [
				{
					"internalType": "uint256",
					"name": "",
					"type": "uint256"
				}
			],
			"stateMutability": "view",
			"type": "function"
		},
		{
			"inputs": [
				{
					"internalType": "uint256",
					"name": "i",
					"type": "uint256"
				}
			],
			"name": "getDynamicBytesArray",
			"outputs": [
				{
					"internalType": "bytes1",
					"name": "",
					"type": "bytes1"
				}
			],
			"stateMutability": "view",
			"type": "function"
		},
		{
			"inputs": [],
			"name": "getName",
			"outputs": [
				{
					"internalType": "string",
					"name": "",
					"type": "string"
				}
			],
			"stateMutability": "view",
			"type": "function"
		},
		{
			"inputs": [],
			"name": "getStaticArrayLength",
			"outputs": [
				{
					"internalType": "uint256",
					"name": "",
					"type": "uint256"
				}
			],
			"stateMutability": "view",
			"type": "function"
		},
		{
			"inputs": [],
			"name": "getter",
			"outputs": [
				{
					"internalType": "uint256",
					"name": "",
					"type": "uint256"
				}
			],
			"stateMutability": "view",
			"type": "function"
		},
		{
			"inputs": [
				{
					"internalType": "uint256",
					"name": "",
					"type": "uint256"
				}
			],
			"name": "myArray",
			"outputs": [
				{
					"internalType": "uint256",
					"name": "",
					"type": "uint256"
				}
			],
			"stateMutability": "view",
			"type": "function"
		},
		{
			"inputs": [],
			"name": "myIntVar",
			"outputs": [
				{
					"internalType": "int8",
					"name": "",
					"type": "int8"
				}
			],
			"stateMutability": "view",
			"type": "function"
		},
		{
			"inputs": [],
			"name": "name",
			"outputs": [
				{
					"internalType": "string",
					"name": "",
					"type": "string"
				}
			],
			"stateMutability": "view",
			"type": "function"
		},
		{
			"inputs": [],
			"name": "popElementFromDynamicArray",
			"outputs": [],
			"stateMutability": "nonpayable",
			"type": "function"
		},
		{
			"inputs": [],
			"name": "pushDynamicBytesArray",
			"outputs": [],
			"stateMutability": "nonpayable",
			"type": "function"
		},
		{
			"inputs": [
				{
					"internalType": "uint256",
					"name": "item",
					"type": "uint256"
				}
			],
			"name": "pushElementInDynamicArray",
			"outputs": [],
			"stateMutability": "nonpayable",
			"type": "function"
		},
		{
			"inputs": [],
			"name": "setAge",
			"outputs": [],
			"stateMutability": "nonpayable",
			"type": "function"
		},
		{
			"inputs": [
				{
					"internalType": "uint8",
					"name": "index",
					"type": "uint8"
				},
				{
					"internalType": "uint256",
					"name": "value",
					"type": "uint256"
				}
			],
			"name": "setArray",
			"outputs": [],
			"stateMutability": "nonpayable",
			"type": "function"
		},
		{
			"inputs": [],
			"name": "setBytesArrayVar",
			"outputs": [],
			"stateMutability": "nonpayable",
			"type": "function"
		},
		{
			"inputs": [
				{
					"internalType": "string",
					"name": "newName",
					"type": "string"
				}
			],
			"name": "setName",
			"outputs": [],
			"stateMutability": "nonpayable",
			"type": "function"
		},
		{
			"inputs": [],
			"name": "setStateVar",
			"outputs": [],
			"stateMutability": "nonpayable",
			"type": "function"
		},
		{
			"inputs": [],
			"name": "setter",
			"outputs": [],
			"stateMutability": "nonpayable",
			"type": "function"
		},
		{
			"inputs": [],
			"name": "stateVar",
			"outputs": [
				{
					"internalType": "uint16",
					"name": "",
					"type": "uint16"
				}
			],
			"stateMutability": "view",
			"type": "function"
		},
		{
			"inputs": [
				{
					"internalType": "uint256",
					"name": "",
					"type": "uint256"
				}
			],
			"name": "staticArray",
			"outputs": [
				{
					"internalType": "uint256",
					"name": "",
					"type": "uint256"
				}
			],
			"stateMutability": "view",
			"type": "function"
		},
		{
			"inputs": [],
			"name": "store",
			"outputs": [
				{
					"internalType": "uint256",
					"name": "",
					"type": "uint256"
				}
			],
			"stateMutability": "pure",
			"type": "function"
		},
		{
			"inputs": [],
			"name": "whileLoop",
			"outputs": [],
			"stateMutability": "nonpayable",
			"type": "function"
		}
	]
}