{
	"data": {
		"bytecode": {
			"linkReferences": {},
			"object": "60806040526000600360006101000a81548160ff0219169083600281111561002a57610029610188565b5b02179055506103e860045534801561004157600080fd5b506040518060400160405280600b81526020017f426164616c20486172697400000000000000000000000000000000000000000081525060008001908051906020019061008f9291906100b3565b506001600060020160006101000a81548160ff0219169083151502179055506101e6565b8280546100bf90610156565b90600052602060002090601f0160209004810192826100e15760008555610128565b82601f106100fa57805160ff1916838001178555610128565b82800160010185558215610128579182015b8281111561012757825182559160200191906001019061010c565b5b5090506101359190610139565b5090565b5b8082111561015257600081600090555060010161013a565b5090565b6000600282049050600182168061016e57607f821691505b60208210811415610182576101816101b7565b5b50919050565b7f4e487b7100000000000000000000000000000000000000000000000000000000600052602160045260246000fd5b7f4e487b7100000000000000000000000000000000000000000000000000000000600052602260045260246000fd5b610507806101f56000396000f3fe608060405234801561001057600080fd5b50600436106100415760003560e01c806395d1ce9614610046578063ba13a57214610066578063be040fb014610084575b600080fd5b61004e61008e565b60405161005d93929190610259565b60405180910390f35b61006e61013b565b60405161007b9190610297565b60405180910390f35b61008c610141565b005b600080600001805461009f906103d2565b80601f01602080910402602001604051908101604052809291908181526020018280546100cb906103d2565b80156101185780601f106100ed57610100808354040283529160200191610118565b820191906000526020600020905b8154815290600101906020018083116100fb57829003601f168201915b5050505050908060010154908060020160009054906101000a900460ff16905083565b60045481565b6000600281111561015557610154610462565b5b600360009054906101000a900460ff16600281111561017757610176610462565b5b14801561019a575060011515600060020160009054906101000a900460ff161515145b15610200576000600480546101af9190610324565b9050806004546101bf9190610355565b60048190555080600060010160008282546101da91906102ce565b9250508190555060008060020160006101000a81548160ff021916908315150217905550505b565b61020b81610389565b82525050565b600061021c826102b2565b61022681856102bd565b935061023681856020860161039f565b61023f816104c0565b840191505092915050565b61025381610395565b82525050565b600060608201905081810360008301526102738186610211565b9050610282602083018561024a565b61028f6040830184610202565b949350505050565b60006020820190506102ac600083018461024a565b92915050565b600081519050919050565b600082825260208201905092915050565b60006102d982610395565b91506102e483610395565b9250827fffffffffffffffffffffffffffffffffffffffffffffffffffffffffffffffff0382111561031957610318610404565b5b828201905092915050565b600061032f82610395565b915061033a83610395565b92508261034a57610349610433565b5b828204905092915050565b600061036082610395565b915061036b83610395565b92508282101561037e5761037d610404565b5b828203905092915050565b60008115159050919050565b6000819050919050565b60005b838110156103bd5780820151818401526020810190506103a2565b838111156103cc576000848401525b50505050565b600060028204905060018216806103ea57607f821691505b602082108114156103fe576103fd610491565b5b50919050565b7f4e487b7100000000000000000000000000000000000000000000000000000000600052601160045260246000fd5b7f4e487b7100000000000000000000000000000000000000000000000000000000600052601260045260246000fd5b7f4e487b7100000000000000000000000000000000000000000000000000000000600052602160045260246000fd5b7f4e487b7100000000000000000000000000000000000000000000000000000000600052602260045260246000fd5b6000601f19601f830116905091905056fea264697066735822122072ac06224ccdd12fba4a5c77880c581e900531eaa11a84eb2b65a9f849fa38d064736f6c63430008070033",
			"opcodes": "PUSH1 0x80 PUSH1 0x40 MSTORE PUSH1 0x0 PUSH1 0x3 PUSH1 0x0 PUSH2 0x100 EXP DUP2 SLOAD DUP2 PUSH1 0xFF MUL NOT AND SWAP1 DUP4 PUSH1 0x2 DUP2 GT ISZERO PUSH2 0x2A JUMPI PUSH2 0x29 PUSH2 0x188 JUMP JUMPDEST JUMPDEST MUL OR SWAP1 SSTORE POP PUSH2 0x3E8 PUSH1 0x4 SSTORE CALLVALUE DUP1 ISZERO PUSH2 0x41 JUMPI PUSH1 0x0 DUP1 REVERT JUMPDEST POP PUSH1 0x40 MLOAD DUP1 PUSH1 0x40 ADD PUSH1 0x40 MSTORE DUP1 PUSH1 0xB DUP2 MSTORE PUSH1 0x20 ADD PUSH32 0x426164616C204861726974000000000000000000000000000000000000000000 DUP2 MSTORE POP PUSH1 0x0 DUP1 ADD SWAP1 DUP1 MLOAD SWAP1 PUSH1 0x20 ADD SWAP1 PUSH2 0x8F SWAP3 SWAP2 SWAP1 PUSH2 0xB3 JUMP JUMPDEST POP PUSH1 0x1 PUSH1 0x0 PUSH1 0x2 ADD PUSH1 0x0 PUSH2 0x100 EXP DUP2 SLOAD DUP2 PUSH1 0xFF MUL NOT AND SWAP1 DUP4 ISZERO ISZERO MUL OR SWAP1 SSTORE POP PUSH2 0x1E6 JUMP JUMPDEST DUP3 DUP1 SLOAD PUSH2 0xBF SWAP1 PUSH2 0x156 JUMP JUMPDEST SWAP1 PUSH1 0x0 MSTORE PUSH1 0x20 PUSH1 0x0 KECCAK256 SWAP1 PUSH1 0x1F ADD PUSH1 0x20 SWAP1 DIV DUP2 ADD SWAP3 DUP3 PUSH2 0xE1 JUMPI PUSH1 0x0 DUP6 SSTORE PUSH2 0x128 JUMP JUMPDEST DUP3 PUSH1 0x1F LT PUSH2 0xFA JUMPI DUP1 MLOAD PUSH1 0xFF NOT AND DUP4 DUP1 ADD OR DUP6 SSTORE PUSH2 0x128 JUMP JUMPDEST DUP3 DUP1 ADD PUSH1 0x1 ADD DUP6 SSTORE DUP3 ISZERO PUSH2 0x128 JUMPI SWAP2 DUP3 ADD JUMPDEST DUP3 DUP2 GT ISZERO PUSH2 0x127 JUMPI DUP3 MLOAD DUP3 SSTORE SWAP2 PUSH1 0x20 ADD SWAP2 SWAP1 PUSH1 0x1 ADD SWAP1 PUSH2 0x10C JUMP JUMPDEST JUMPDEST POP SWAP1 POP PUSH2 0x135 SWAP2 SWAP1 PUSH2 0x139 JUMP JUMPDEST POP SWAP1 JUMP JUMPDEST JUMPDEST DUP1 DUP3 GT ISZERO PUSH2 0x152 JUMPI PUSH1 0x0 DUP2 PUSH1 0x0 SWAP1 SSTORE POP PUSH1 0x1 ADD PUSH2 0x13A JUMP JUMPDEST POP SWAP1 JUMP JUMPDEST PUSH1 0x0 PUSH1 0x2 DUP3 DIV SWAP1 POP PUSH1 0x1 DUP3 AND DUP1 PUSH2 0x16E JUMPI PUSH1 0x7F DUP3 AND SWAP2 POP JUMPDEST PUSH1 0x20 DUP3 LT DUP2 EQ ISZERO PUSH2 0x182 JUMPI PUSH2 0x181 PUSH2 0x1B7 JUMP JUMPDEST JUMPDEST POP SWAP2 SWAP1 POP JUMP JUMPDEST PUSH32 0x4E487B7100000000000000000000000000000000000000000000000000000000 PUSH1 0x0 MSTORE PUSH1 0x21 PUSH1 0x4 MSTORE PUSH1 0x24 PUSH1 0x0 REVERT JUMPDEST PUSH32 0x4E487B7100000000000000000000000000000000000000000000000000000000 PUSH1 0x0 MSTORE PUSH1 0x22 PUSH1 0x4 MSTORE PUSH1 0x24 PUSH1 0x0 REVERT JUMPDEST PUSH2 0x507 DUP1 PUSH2 0x1F5 PUSH1 0x0 CODECOPY PUSH1 0x0 RETURN INVALID PUSH1 0x80 PUSH1 0x40 MSTORE CALLVALUE DUP1 ISZERO PUSH2 0x10 JUMPI PUSH1 0x0 DUP1 REVERT JUMPDEST POP PUSH1 0x4 CALLDATASIZE LT PUSH2 0x41 JUMPI PUSH1 0x0 CALLDATALOAD PUSH1 0xE0 SHR DUP1 PUSH4 0x95D1CE96 EQ PUSH2 0x46 JUMPI DUP1 PUSH4 0xBA13A572 EQ PUSH2 0x66 JUMPI DUP1 PUSH4 0xBE040FB0 EQ PUSH2 0x84 JUMPI JUMPDEST PUSH1 0x0 DUP1 REVERT JUMPDEST PUSH2 0x4E PUSH2 0x8E JUMP JUMPDEST PUSH1 0x40 MLOAD PUSH2 0x5D SWAP4 SWAP3 SWAP2 SWAP1 PUSH2 0x259 JUMP JUMPDEST PUSH1 0x40 MLOAD DUP1 SWAP2 SUB SWAP1 RETURN JUMPDEST PUSH2 0x6E PUSH2 0x13B JUMP JUMPDEST PUSH1 0x40 MLOAD PUSH2 0x7B SWAP2 SWAP1 PUSH2 0x297 JUMP JUMPDEST PUSH1 0x40 MLOAD DUP1 SWAP2 SUB SWAP1 RETURN JUMPDEST PUSH2 0x8C PUSH2 0x141 JUMP JUMPDEST STOP JUMPDEST PUSH1 0x0 DUP1 PUSH1 0x0 ADD DUP1 SLOAD PUSH2 0x9F SWAP1 PUSH2 0x3D2 JUMP JUMPDEST DUP1 PUSH1 0x1F ADD PUSH1 0x20 DUP1 SWAP2 DIV MUL PUSH1 0x20 ADD PUSH1 0x40 MLOAD SWAP1 DUP2 ADD PUSH1 0x40 MSTORE DUP1 SWAP3 SWAP2 SWAP1 DUP2 DUP2 MSTORE PUSH1 0x20 ADD DUP3 DUP1 SLOAD PUSH2 0xCB SWAP1 PUSH2 0x3D2 JUMP JUMPDEST DUP1 ISZERO PUSH2 0x118 JUMPI DUP1 PUSH1 0x1F LT PUSH2 0xED JUMPI PUSH2 0x100 DUP1 DUP4 SLOAD DIV MUL DUP4 MSTORE SWAP2 PUSH1 0x20 ADD SWAP2 PUSH2 0x118 JUMP JUMPDEST DUP3 ADD SWAP2 SWAP1 PUSH1 0x0 MSTORE PUSH1 0x20 PUSH1 0x0 KECCAK256 SWAP1 JUMPDEST DUP2 SLOAD DUP2 MSTORE SWAP1 PUSH1 0x1 ADD SWAP1 PUSH1 0x20 ADD DUP1 DUP4 GT PUSH2 0xFB JUMPI DUP3 SWAP1 SUB PUSH1 0x1F AND DUP3 ADD SWAP2 JUMPDEST POP POP POP POP POP SWAP1 DUP1 PUSH1 0x1 ADD SLOAD SWAP1 DUP1 PUSH1 0x2 ADD PUSH1 0x0 SWAP1 SLOAD SWAP1 PUSH2 0x100 EXP SWAP1 DIV PUSH1 0xFF AND SWAP1 POP DUP4 JUMP JUMPDEST PUSH1 0x4 SLOAD DUP2 JUMP JUMPDEST PUSH1 0x0 PUSH1 0x2 DUP2 GT ISZERO PUSH2 0x155 JUMPI PUSH2 0x154 PUSH2 0x462 JUMP JUMPDEST JUMPDEST PUSH1 0x3 PUSH1 0x0 SWAP1 SLOAD SWAP1 PUSH2 0x100 EXP SWAP1 DIV PUSH1 0xFF AND PUSH1 0x2 DUP2 GT ISZERO PUSH2 0x177 JUMPI PUSH2 0x176 PUSH2 0x462 JUMP JUMPDEST JUMPDEST EQ DUP1 ISZERO PUSH2 0x19A JUMPI POP PUSH1 0x1 ISZERO ISZERO PUSH1 0x0 PUSH1 0x2 ADD PUSH1 0x0 SWAP1 SLOAD SWAP1 PUSH2 0x100 EXP SWAP1 DIV PUSH1 0xFF AND ISZERO ISZERO EQ JUMPDEST ISZERO PUSH2 0x200 JUMPI PUSH1 0x0 PUSH1 0x4 DUP1 SLOAD PUSH2 0x1AF SWAP2 SWAP1 PUSH2 0x324 JUMP JUMPDEST SWAP1 POP DUP1 PUSH1 0x4 SLOAD PUSH2 0x1BF SWAP2 SWAP1 PUSH2 0x355 JUMP JUMPDEST PUSH1 0x4 DUP2 SWAP1 SSTORE POP DUP1 PUSH1 0x0 PUSH1 0x1 ADD PUSH1 0x0 DUP3 DUP3 SLOAD PUSH2 0x1DA SWAP2 SWAP1 PUSH2 0x2CE JUMP JUMPDEST SWAP3 POP POP DUP2 SWAP1 SSTORE POP PUSH1 0x0 DUP1 PUSH1 0x2 ADD PUSH1 0x0 PUSH2 0x100 EXP DUP2 SLOAD DUP2 PUSH1 0xFF MUL NOT AND SWAP1 DUP4 ISZERO ISZERO MUL OR SWAP1 SSTORE POP POP JUMPDEST JUMP JUMPDEST PUSH2 0x20B DUP2 PUSH2 0x389 JUMP JUMPDEST DUP3 MSTORE POP POP JUMP JUMPDEST PUSH1 0x0 PUSH2 0x21C DUP3 PUSH2 0x2B2 JUMP JUMPDEST PUSH2 0x226 DUP2 DUP6 PUSH2 0x2BD JUMP JUMPDEST SWAP4 POP PUSH2 0x236 DUP2 DUP6 PUSH1 0x20 DUP7 ADD PUSH2 0x39F JUMP JUMPDEST PUSH2 0x23F DUP2 PUSH2 0x4C0 JUMP JUMPDEST DUP5 ADD SWAP2 POP POP SWAP3 SWAP2 POP POP JUMP JUMPDEST PUSH2 0x253 DUP2 PUSH2 0x395 JUMP JUMPDEST DUP3 MSTORE POP POP JUMP JUMPDEST PUSH1 0x0 PUSH1 0x60 DUP3 ADD SWAP1 POP DUP2 DUP2 SUB PUSH1 0x0 DUP4 ADD MSTORE PUSH2 0x273 DUP2 DUP7 PUSH2 0x211 JUMP JUMPDEST SWAP1 POP PUSH2 0x282 PUSH1 0x20 DUP4 ADD DUP6 PUSH2 0x24A JUMP JUMPDEST PUSH2 0x28F PUSH1 0x40 DUP4 ADD DUP5 PUSH2 0x202 JUMP JUMPDEST SWAP5 SWAP4 POP POP POP POP JUMP JUMPDEST PUSH1 0x0 PUSH1 0x20 DUP3 ADD SWAP1 POP PUSH2 0x2AC PUSH1 0x0 DUP4 ADD DUP5 PUSH2 0x24A JUMP JUMPDEST SWAP3 SWAP2 POP POP JUMP JUMPDEST PUSH1 0x0 DUP2 MLOAD SWAP1 POP SWAP2 SWAP1 POP JUMP JUMPDEST PUSH1 0x0 DUP3 DUP3 MSTORE PUSH1 0x20 DUP3 ADD SWAP1 POP SWAP3 SWAP2 POP POP JUMP JUMPDEST PUSH1 0x0 PUSH2 0x2D9 DUP3 PUSH2 0x395 JUMP JUMPDEST SWAP2 POP PUSH2 0x2E4 DUP4 PUSH2 0x395 JUMP JUMPDEST SWAP3 POP DUP3 PUSH32 0xFFFFFFFFFFFFFFFFFFFFFFFFFFFFFFFFFFFFFFFFFFFFFFFFFFFFFFFFFFFFFFFF SUB DUP3 GT ISZERO PUSH2 0x319 JUMPI PUSH2 0x318 PUSH2 0x404 JUMP JUMPDEST JUMPDEST DUP3 DUP3 ADD SWAP1 POP SWAP3 SWAP2 POP POP JUMP JUMPDEST PUSH1 0x0 PUSH2 0x32F DUP3 PUSH2 0x395 JUMP JUMPDEST SWAP2 POP PUSH2 0x33A DUP4 PUSH2 0x395 JUMP JUMPDEST SWAP3 POP DUP3 PUSH2 0x34A JUMPI PUSH2 0x349 PUSH2 0x433 JUMP JUMPDEST JUMPDEST DUP3 DUP3 DIV SWAP1 POP SWAP3 SWAP2 POP POP JUMP JUMPDEST PUSH1 0x0 PUSH2 0x360 DUP3 PUSH2 0x395 JUMP JUMPDEST SWAP2 POP PUSH2 0x36B DUP4 PUSH2 0x395 JUMP JUMPDEST SWAP3 POP DUP3 DUP3 LT ISZERO PUSH2 0x37E JUMPI PUSH2 0x37D PUSH2 0x404 JUMP JUMPDEST JUMPDEST DUP3 DUP3 SUB SWAP1 POP SWAP3 SWAP2 POP POP JUMP JUMPDEST PUSH1 0x0 DUP2 ISZERO ISZERO SWAP1 POP SWAP2 SWAP1 POP JUMP JUMPDEST PUSH1 0x0 DUP2 SWAP1 POP SWAP2 SWAP1 POP JUMP JUMPDEST PUSH1 0x0 JUMPDEST DUP4 DUP2 LT ISZERO PUSH2 0x3BD JUMPI DUP1 DUP3 ADD MLOAD DUP2 DUP5 ADD MSTORE PUSH1 0x20 DUP2 ADD SWAP1 POP PUSH2 0x3A2 JUMP JUMPDEST DUP4 DUP2 GT ISZERO PUSH2 0x3CC JUMPI PUSH1 0x0 DUP5 DUP5 ADD MSTORE JUMPDEST POP POP POP POP JUMP JUMPDEST PUSH1 0x0 PUSH1 0x2 DUP3 DIV SWAP1 POP PUSH1 0x1 DUP3 AND DUP1 PUSH2 0x3EA JUMPI PUSH1 0x7F DUP3 AND SWAP2 POP JUMPDEST PUSH1 0x20 DUP3 LT DUP2 EQ ISZERO PUSH2 0x3FE JUMPI PUSH2 0x3FD PUSH2 0x491 JUMP JUMPDEST JUMPDEST POP SWAP2 SWAP1 POP JUMP JUMPDEST PUSH32 0x4E487B7100000000000000000000000000000000000000000000000000000000 PUSH1 0x0 MSTORE PUSH1 0x11 PUSH1 0x4 MSTORE PUSH1 0x24 PUSH1 0x0 REVERT JUMPDEST PUSH32 0x4E487B7100000000000000000000000000000000000000000000000000000000 PUSH1 0x0 MSTORE PUSH1 0x12 PUSH1 0x4 MSTORE PUSH1 0x24 PUSH1 0x0 REVERT JUMPDEST PUSH32 0x4E487B7100000000000000000000000000000000000000000000000000000000 PUSH1 0x0 MSTORE PUSH1 0x21 PUSH1 0x4 MSTORE PUSH1 0x24 PUSH1 0x0 REVERT JUMPDEST PUSH32 0x4E487B7100000000000000000000000000000000000000000000000000000000 PUSH1 0x0 MSTORE PUSH1 0x22 PUSH1 0x4 MSTORE PUSH1 0x24 PUSH1 0x0 REVERT JUMPDEST PUSH1 0x0 PUSH1 0x1F NOT PUSH1 0x1F DUP4 ADD AND SWAP1 POP SWAP2 SWAP1 POP JUMP INVALID LOG2 PUSH5 0x6970667358 0x22 SLT KECCAK256 PUSH19 0xAC06224CCDD12FBA4A5C77880C581E900531EA LOG1 BYTE DUP5 0xEB 0x2B PUSH6 0xA9F849FA38D0 PUSH5 0x736F6C6343 STOP ADDMOD SMOD STOP CALLER "
		},
		"gasEstimates": {
			"creation": {
				"codeDepositCost": "257400",
				"executionCost": "infinite",
				"totalCost": "infinite"
			},
			"external": {
				"badal()": "infinite",
				"lottery()": "2429",
				"redeem()": "infinite"
			}
		},
		"methodIdentifiers": {
			"badal()": "95d1ce96",
			"lottery()": "ba13a572",
			"redeem()": "be040fb0"
		}
	},
	"abi": [
		{
			"inputs": [],
			"stateMutability": "nonpayable",
			"type": "constructor"
		},
		{
			"inputs": [],
			"name": "badal",
			"outputs": [
				{
					"internalType": "string",
					"name": "name",
					"type": "string"
				},
				{
					"internalType": "uint256",
					"name": "account_balance",
					"type": "uint256"
				},
				{
					"internalType": "bool",
					"name": "can_redeem",
					"type": "bool"
				}
			],
			"stateMutability": "view",
			"type": "function"
		},
		{
			"inputs": [],
			"name": "lottery",
			"outputs": [
				{
					"internalType": "uint256",
					"name": "",
					"type": "uint256"
				}
			],
			"stateMutability": "view",
			"type": "function"
		},
		{
			"inputs": [],
			"name": "redeem",
			"outputs": [],
			"stateMutability": "nonpayable",
			"type": "function"
		}
	]
}